:020000040800F2
:1000000000500020A9130008391300083F1300080E
:10001000451300084B1300085113000800000000AE
:10002000000000000000000000000000571300085E
:1000300063130008000000006F1300087B13000822
:10004000F1130008F1130008F1130008F113000880
:10005000F1130008F1130008F1130008F113000870
:10006000F1130008F1130008F1130008F113000860
:10007000F1130008F1130008F1130008F113000850
:10008000F1130008F1130008F1130008F113000840
:10009000F1130008F1130008F1130008F113000830
:1000A000F1130008F1130008F1130008F113000820
:1000B00089130008F1130008F1130008F113000878
:1000C000F1130008F1130008F1130008F113000800
:1000D000F1130008F1130008F1130008F1130008F0
:1000E000F1130008F1130008F113000800000000EC
:1000F0000000000000000000000000000000000000
:0C01000000000000000000005FF808F1A3
:10010C0010B5054C237833B9044B13B10448AFF345
:10011C0000800123237010BD580000200000000057
:10012C007C2A000808B5034B1BB103490348AFF305
:10013C00008008BD000000005C0000207C2A000844
:10014C0080B483B000AF7860094A7B6852F82330E2
:10015C00012B06D1064A7B68002142F823100123AB
:10016C0000E0002318460C37BD4680BC704700BF2A
:10017C007400002080B483B000AF7860044A7B68C0
:10018C00012142F8231000BF0C37BD4680BC7047DC
:10019C007400002080B582B000AF00237B6089E042
:1001AC00494A7B6852F8232048497B6841F8232050
:1001BC00474A7B6852F8232043497B6841F8232047
:1001CC007B68002B0FD1434A7B6852F823309BB2DB
:1001DC001946414801F0FCFB034619463C4A7B6832
:1001EC0042F8231021E07B68012B0FD1394A7B6840
:1001FC0052F823309BB21946384801F0E9FB03460C
:10020C001946334A7B6842F823100EE0314A7B686A
:10021C0052F823309BB219462F4801F0D9FB034604
:10022C0019462B4A7B6842F82310274A7B6852F800
:10023C00232027497B6851F823309A4237D1224A30
:10024C007B6852F8232021497B6851F823309A426D
:10025C002DD11E4A7B6852F8232021497B6851F826
:10026C0023309A4215D0194A7B6852F823201C4936
:10027C007B6841F823201A4A7B6852F82330002B04
:10028C0015D1184B4FF4FA721A607868FFF772FFA9
:10029C000DE0144B1B68013B124A1360114B1B6899
:1002AC00002B04D10E4A7B68012142F823107B6895
:1002BC0001337B607B68022B7FF772AF00BF00BFFE
:1002CC000837BD4680BD00BF180000202400002068
:1002DC000C0000200000002000100140000C014028
:1002EC00300000203C00002080B582B000AF0346F7
:1002FC00FB71FB79032B4BD801A252F823F000BF02
:10030C001D0300083D0300087D0300085D03000881
:10031C0000221021214801F072FB002202211F480B
:10032C0001F06DFB002201211C4801F068FB30E05C
:10033C0000221021194801F062FB0022022117480B
:10034C0001F05DFB01220121144801F058FB20E073
:10035C0000221021114801F052FB012202210F480A
:10036C0001F04DFB002201210C4801F048FB10E08C
:10037C0001221021094801F042FB0022022107480A
:10038C0001F03DFB00220121044801F038FB00E0A4
:10039C0000BF00BF0837BD4680BD00BF000801404C
:1003AC0080B582B000AF0346FB71FB79032B53D8A9
:1003BC0001A252F823F000BFD5030008F90300088E
:1003CC00410400081D04000800224FF40071254868
:1003DC0001F015FB00220121234801F010FB002243
:1003EC004FF480711F4801F00AFB36E000224FF4F5
:1003FC0000711C4801F003FB002201211A4801F096
:10040C00FEFA01224FF48071164801F0F8FA24E04C
:10041C0000224FF40071134801F0F1FA012201217E
:10042C00114801F0ECFA00224FF480710D4801F0F4
:10043C00E6FA12E001224FF400710A4801F0DFFAEB
:10044C0000220121084801F0DAFA00224FF48071F1
:10045C00044801F0D4FA00E000BF00BF0837BD46E5
:10046C0080BD00BF000C01400010014080B582B07F
:10047C0000AF0346FB71FB79032B0FD0032B20DC61
:10048C00012B14D0022B1CD11021104801F0CFFAF3
:10049C004FF400710E4801F0CAFA13E002210B4828
:1004AC0001F0C5FA01210B4801F0C1FA0AE0012163
:1004BC00064801F0BCFA4FF48071054801F0B7FA18
:1004CC0000E000BF00BF0837BD4680BD00080140FA
:1004DC00000C01400010014080B582B000AF786084
:1004EC007B68092B00F2A88101A252F823F000BF0F
:1004FC002505000875050008C50500081506000847
:10050C0065060008B5060008050700085507000831
:10051C00A5070008F507000800220821C94801F0CA
:10052C006EFA00220421C74801F069FA00224FF448
:10053C008061C44801F063FA00222021C24801F016
:10054C005EFA00224FF48061BF4801F058FA002295
:10055C004FF48071BB4801F052FA01224FF4007144
:10056C00B84801F04CFA68E101220821B54801F0C5
:10057C0046FA00220421B34801F041FA00224FF45C
:10058C008061B04801F03BFA01222021AE4801F015
:10059C0036FA01224FF48061AB4801F030FA0122A7
:1005AC004FF48071A74801F02AFA01224FF4007130
:1005BC00A44801F024FA40E100220821A14801F0EE
:1005CC001EFA002204219F4801F019FA01224FF46F
:1005DC0080619C4801F013FA002220219A4801F016
:1005EC000EFA00224FF48061974801F008FA0122BC
:1005FC004FF48071934801F002FA00224FF400711D
:10060C00904801F0FCF918E1002208218D4801F016
:10061C00F6F9002204218B4801F0F1F900224FF485
:10062C008061884801F0EBF900222021864801F016
:10063C00E6F901224FF48061834801F0E0F90122D0
:10064C004FF480717F4801F0DAF900224FF4007109
:10065C007C4801F0D4F9F0E001220821794801F03E
:10066C00CEF900220421774801F0C9F900224FF499
:10067C008061744801F0C3F901222021724801F015
:10068C00BEF901224FF480616F4801F0B8F90022E5
:10069C004FF480716B4801F0B2F900224FF40071F5
:1006AC00684801F0ACF9C8E000220821654801F067
:1006BC00A6F901220421634801F0A1F900224FF4AC
:1006CC008061604801F09BF9002220215E4801F016
:1006DC0096F901224FF480615B4801F090F90022F9
:1006EC004FF48071574801F08AF900224FF40071E1
:1006FC00544801F084F9A0E000220821514801F08F
:10070C007EF9012204214F4801F079F900224FF4BF
:10071C0080614C4801F073F9002220214A4801F015
:10072C006EF900224FF48061474801F068F900220D
:10073C004FF48071434801F062F900224FF40071CC
:10074C00404801F05CF978E0002208213D4801F0B6
:10075C0056F9002204213B4801F051F900224FF4D4
:10076C008061384801F04BF901222021364801F014
:10077C0046F901224FF48061334801F040F901221F
:10078C004FF480712F4801F03AF901224FF40071B7
:10079C002C4801F034F950E000220821294801F0DE
:1007AC002EF900220421274801F029F900224FF4E8
:1007BC008061244801F023F900222021224801F015
:1007CC001EF900224FF480611F4801F018F9002235
:1007DC004FF480711B4801F012F900224FF40071A4
:1007EC00184801F00CF928E000220821154801F006
:1007FC0006F900220421134801F001F900224FF4FC
:10080C008061104801F0FBF8002220210E4801F015
:10081C00F6F801224FF480610B4801F0F0F8002249
:10082C004FF48071074801F0EAF800224FF4007190
:10083C00044801F0E4F800E000BF00BF0837BD46F3
:10084C0080BD00BF00080140000C014080B500AF26
:10085C000020FFF775FC0346012B02D1844B0222CA
:10086C001A70834B1B78012B40F0FF80814B1B7857
:10087C00032B76D801A252F823F000BF9908000888
:10088C00B3080008FF08000837090008794B01225B
:10089C001A70794B1B681846FFF71EFE6421002066
:1008AC0000F0BEFC64E00120FFF71EFD724B1B68DC
:1008BC001846FFF711FE714B1B68012B53D16E4B81
:1008CC001B68013B6C4A13606B4B1B681846FFF7A7
:1008DC0003FE694B1B68002B06D1694B1B68664AEB
:1008EC001360644B02221A706421002000F098FC03
:1008FC0039E00220FFF7F8FC604B1B68012B34D168
:10090C005D4B1B68013B5C4A13605B4B1B68002B07
:10091C0006D15C4B1B68584A1360564B03221A7065
:10092C006421002000F07CFC1FE00320FFF7DCFCBE
:10093C00524B1B68012B1AD14F4B1B68013B4E4A83
:10094C0013604D4B1B68002B06D14F4B1B684A4A5A
:10095C001360484B01221A706421002000F060FCE7
:10096C0005E000BF04E000BF02E000BF00E000BFF4
:10097C00464B1B78032B71D801A252F823F000BF11
:10098C009D090008AD090008F9090008310A0008A2
:10099C003E4B02221A706421012000F041FC64E0FD
:1009AC000120FFF7FDFC3A4B1B681846FFF794FD3E
:1009BC00324B5B68012B53D1354B1B68013B344ADE
:1009CC001360334B1B681846FFF786FD304B1B68D2
:1009DC00002B06D12A4B1B682D4A13602B4B02228D
:1009EC001A706421012000F01BFC39E00220FFF793
:1009FC00D7FC224B5B68012B34D1254B1B68013B88
:100A0C00234A1360224B1B68002B06D11D4B1B681D
:100A1C001F4A13601D4B03221A706421012000F041
:100A2C00FFFB1FE00320FFF7BBFC144B5B68012BA3
:100A3C001AD1174B1B68013B154A1360144B1B68EA
:100A4C00002B06D1104B1B68114A13600F4B01226F
:100A5C001A706421012000F0E3FB05E000BF04E004
:100A6C0000BF02E000BF00E000BF00BF80BD00BFC0
:100A7C00800000208A000020900000200801002047
:100A8C004400002048000020400000208B00002083
:100A9C009400002080B500AF414B1B681846FFF74F
:100AAC001BFD404B1B78002B02D0012B28D033E0D0
:100ABC00002210213C4800F0A2FF002202213A48FB
:100ACC0000F09DFF00220121374800F098FF002222
:100ADC004FF40071354800F092FF00220121344898
:100AEC0000F08DFF00224FF48071304800F087FF3A
:100AFC002C4B01221A701921032000F091FB0BE002
:100B0C002C4BDB68012B06D10120FFF7AFFC192120
:100B1C00032000F085FB00BF274B1B78002B02D075
:100B2C00012B14D039E00120FFF70AFB0346012BFF
:100B3C0030D1214B01221A70194B1B680133184A12
:100B4C0013601E4B1B6801331C4A136022E001200A
:100B5C00FFF7F6FA0346012B10D1114B1B6801333A
:100B6C000F4A1360154B1B680133144A13600C4B6E
:100B7C001B68092B02DD0A4B01221A600220FFF7C9
:100B8C00DFFA0346012B07D10D4B01221A7000F03E
:100B9C0087F901E000BF00E000BF00BF80BD00BFCF
:100BAC00400000208100002000080140000C0140A2
:100BBC0000100140080100208300002044000020A8
:100BCC008000002080B500AF414B1B681846FFF732
:100BDC0083FC404B1B78002B02D0012B28D033E038
:100BEC00002210213C4800F00AFF002202213A4862
:100BFC0000F005FF00220121374800F000FF002221
:100C0C004FF40071354800F0FAFE002201213448FF
:100C1C0000F0F5FE00224FF48071304800F0EFFE3A
:100C2C002C4B01221A701921052000F0F9FA0BE067
:100C3C002C4B5B69012B06D10320FFF717FC192104
:100C4C00052000F0EDFA00BF274B1B78002B02D0DB
:100C5C00012B14D039E00120FFF772FA0346012B67
:100C6C0030D1214B01221A70194B1B680133184AE1
:100C7C0013601E4B1B6801331C4A136022E00120D9
:100C8C00FFF75EFA0346012B10D1114B1B680133A1
:100C9C000F4A1360154B1B680133144A13600C4B3D
:100CAC001B68092B02DD0A4B01221A600220FFF798
:100CBC0047FA0346012B07D10D4B01221A7000F0A5
:100CCC00EFF801E000BF00E000BF00BF80BD00BF37
:100CDC00480000208400002000080140000C014066
:100CEC000010014008010020860000204000002078
:100CFC008000002080B500AF414B1B681846FFF701
:100D0C00EBFB404B1B78002B02D0012B28D033E09F
:100D1C00002210213C4800F072FE002202213A48C9
:100D2C0000F06DFE00220121374800F068FE002221
:100D3C004FF40071354800F062FE00220121344866
:100D4C0000F05DFE00224FF48071304800F057FE39
:100D5C002C4B01221A701921072000F061FA0BE0CC
:100D6C002C4BDB69012B06D10220FFF77FFB1921ED
:100D7C00072000F055FA00BF274B1B78002B02D040
:100D8C00012B14D039E00120FFF7DAF90346012BCF
:100D9C0030D1214B01221A70194B1B680133184AB0
:100DAC0013601E4B1B6801331C4A136022E00120A8
:100DBC00FFF7C6F90346012B10D1114B1B68013309
:100DCC000F4A1360154B1B680133144A13600C4B0C
:100DDC001B68092B02DD0A4B01221A600220FFF767
:100DEC00AFF90346012B07D10D4B01221A7000F00D
:100DFC0057F801E000BF00E000BF00BF80BD00BF9E
:100E0C00440000208700002000080140000C014035
:100E1C000010014008010020890000204000002043
:100E2C008000002080B500AF1C4B1B78042B1ED01B
:100E3C00042B2ADC022B02D0032B0CD025E0FFF76D
:100E4C0029FE0020FFF77CF90346012B1FD1134B21
:100E5C0003221A701BE0FFF7B5FE0020FFF770F9B4
:100E6C000346012B15D10D4B04221A7011E0FFF72C
:100E7C0041FF0020FFF764F90346012B0BD1074B10
:100E8C0001221A7000F00CF805E000BF04E000BF6E
:100E9C0002E000BF00E000BF00BF80BD800000206A
:100EAC0080B400AF194B01221A70194B00221A7032
:100EBC00184B00221A70184B00221A70174B002284
:100ECC001A70174B00221A70164B00221A70164B10
:100EDC0000221A70154B00221A70154B00221A7042
:100EEC00144B00221A70144B00221A70134B002260
:100EFC001A70134B1B68134A1360134B1B68134A6D
:100F0C00136000BFBD4680BC704700BF800000204E
:100F1C00810000208200002083000020840000203B
:100F2C00850000208600002087000020880000201B
:100F3C00890000208A0000208B0000208C000020FB
:100F4C00400000209000002044000020940000206D
:100F5C0080B500AF00F048FA00F014F800F09AF8F1
:100F6C0000F04CF8064801F0A9F9FFF799FF0020B2
:100F7C00FFF7BAF9FFF76AFCFFF754FFFAE700BF77
:100F8C009800002080B590B000AF07F1180328221C
:100F9C000021184601F040FD3B1D00221A605A60EA
:100FAC009A60DA601A610223BB610123BB621023D1
:100FBC00FB6200237B6307F11803184600F050FD19
:100FCC000346002B01D000F026F90F237B60002391
:100FDC00BB600023FB6000233B6100237B613B1D56
:100FEC000021184600F0BEFF0346002B01D000F094
:100FFC0012F900BF4037BD4680BD000080B586B0F9
:10100C0000AF07F1080300221A605A609A60DA6098
:10101C003B4600221A605A601D4B4FF080421A600A
:10102C001B4B41F63F725A60194B00229A60184BC9
:10103C000A22DA60164B00221A61154B00229A61C3
:10104C00134801F0EBF80346002B01D000F0E3F855
:10105C004FF48053BB6007F1080319460C4801F0AC
:10106C0087FA0346002B01D000F0D5F800233B6033
:10107C0000237B603B461946054801F05DFC0346A6
:10108C00002B01D000F0C7F800BF1837BD4680BD5B
:10109C009800002080B588B000AF07F11003002243
:1010AC001A605A609A60DA60444B9B69434A43F079
:1010BC0010039361414B9B6903F01003FB60FB68C9
:1010CC003E4B9B693D4A43F0040393613B4B9B6948
:1010DC0003F00403BB60BB68384B9B69374A43F091
:1010EC0008039361354B9B6903F008037B607B68B5
:1010FC0000220321324800F082FC002213213148E7
:10110C0000F07DFC012240F2EC712E4800F077FCDF
:10111C0001224FF48C612C4800F071FC00224FF43A
:10112C004071294800F06BFC4FF402533B610023E3
:10113C007B610123BB6107F110031946204800F0C5
:10114C00C3FA03233B6101237B610023BB610223B0
:10115C00FB6107F110031946194800F0B5FA40F28B
:10116C00FF733B6101237B610023BB610223FB61A5
:10117C0007F110031946134800F0A6FA01233B614E
:10118C0000237B610123BB6107F1100319460E4854
:10119C0000F09AFA4FF4EC633B6101237B6100236E
:1011AC00BB610223FB6107F110031946064800F0EE
:1011BC008BFA00BF2037BD4680BD00BF0010024037
:1011CC000010014000080140000C014080B582B0C5
:1011DC0000AF7860FEF7DEFF002000F039F8012048
:1011EC0000F036F8022000F033F8032000F030F85D
:1011FC00042000F02DF8052000F02AF8062000F05D
:10120C0027F8072000F024F8082000F021F800BF90
:10121C000837BD4680BD80B400AF72B600BFFEE794
:10122C0080B483B000AF7860396007497B683A6856
:10123C0041F82320054A7B68002142F8231000BFA7
:10124C000C37BD4680BC7047E00000200801002030
:10125C0080B483B000AF78600F4A7B6852F82330BB
:10126C00002B13DD0C4A7B6852F823305A1E0A49B6
:10127C007B6841F82320084A7B6852F82330002B06
:10128C0004DC064A7B68012142F8231000BF0C37AE
:10129C00BD4680BC704700BFE00000200801002064
:1012AC0080B483B000AF0E4B9B690D4A43F0010331
:1012BC0093610B4B9B6903F001037B607B68084BCC
:1012CC00DB69074A43F08053D361054BDB6903F0BC
:1012DC0080533B603B6800BF0C37BD4680BC7047F9
:1012EC000010024080B584B000AF78607B681B684A
:1012FC00B3F1804F13D10C4BDB690B4A43F0010364
:10130C00D361094BDB6903F00103FB60FB6800222E
:10131C0000211C2000F0A1F91C2000F0BAF900BF3C
:10132C001037BD4680BD00BF0010024080B400AF36
:10133C00FEE780B400AFFEE780B400AFFEE780B4F8
:10134C0000AFFEE780B400AFFEE780B400AF00BF93
:10135C00BD4680BC704780B400AF00BFBD4680BCAA
:10136C00704780B400AF00BFBD4680BC704780B5ED
:10137C0000AF00F07FF800BF80BD000080B500AF6B
:10138C00024800F0EDFF00BF80BD00BF98000020B8
:10139C0080B400AF00BFBD4680BC7047FFF7F8FFBC
:1013AC000B480C490C4A002302E0D458C4500433B7
:1013BC00C4188C42F9D3094A094C002301E013608C
:1013CC000432A242FBD301F02FFBFFF7C1FD7047A3
:1013DC000000002058000020C02A000858000020FF
:1013EC0034010020FEE7000080B500AF084B1B68FD
:1013FC00074A43F010031360032000F023F90F2079
:10140C0000F008F8FFF74CFF0023184680BD00BF22
:10141C000020024080B582B000AF7860124B1A6891
:10142C00124B1B7819464FF47A73B3FBF1F3B2FBF2
:10143C00F3F3184600F03BF90346002B01D00123CF
:10144C000EE07B680F2B0AD8002279684FF0FF3032
:10145C0000F003F9064A7B681360002300E00123C7
:10146C0018460837BD4680BD4C00002054000020B3
:10147C005000002080B400AF054B1B781A46054B7A
:10148C001B681344034A136000BFBD4680BC704701
:10149C00540000203001002080B400AF024B1B68C8
:1014AC001846BD4680BC70473001002080B485B022
:1014BC0000AF78607B6803F00703FB600C4BDB68C4
:1014CC00BB60BA684FF6FF031340BB60FB681A029F
:1014DC00BB68134343F0BF6343F40033BB60044A5F
:1014EC00BB68D36000BF1437BD4680BC704700BFDB
:1014FC0000ED00E080B400AF044BDB681B0A03F086
:10150C0007031846BD4680BC704700BF00ED00E0E5
:10151C0080B483B000AF0346FB7197F90730002B02
:10152C000BDBFB7903F01F02064997F907305B09C7
:10153C00012000FA02F241F8232000BF0C37BD460F
:10154C0080BC704700E100E080B483B000AF03467C
:10155C003960FB7197F90730002B0ADB3B68DAB274
:10156C000C4997F907301201D2B20B4483F80023CF
:10157C000AE03B68DAB20849FB7903F00F03043B3D
:10158C001201D2B20B441A7600BF0C37BD4680BC98
:10159C00704700BF00E100E000ED00E080B489B0CE
:1015AC0000AFF860B9607A60FB6803F00703FB6179
:1015BC00FB69C3F10703042B28BF0423BB61FB6940
:1015CC000433062B02D9FB69033B00E000237B614B
:1015DC004FF0FF32BB6902FA03F3DA43BB681A40DF
:1015EC007B699A404FF0FF317B6901FA03F3D943D1
:1015FC007B680B40134318462437BD4680BC7047AC
:10160C0080B582B000AF78607B68013BB3F1807F1E
:10161C0001D301230FE00A4A7B68013B53600F2181
:10162C004FF0FF30FFF790FF054B00229A60044B00
:10163C0007221A60002318460837BD4680BD00BF3C
:10164C0010E000E080B582B000AF78607868FFF7FA
:10165C002DFF00BF0837BD4680BD80B586B000AFFA
:10166C000346B9607A60FB7300237B61FFF742FF8E
:10167C0078617A68B9687869FFF790FF024697F944
:10168C000F3011461846FFF75FFF00BF1837BD46F5
:10169C0080BD80B582B000AF0346FB7197F907306F
:1016AC001846FFF735FF00BF0837BD4680BD80B533
:1016BC0082B000AF78607868FFF7A2FF0346184647
:1016CC000837BD4680BD000080B48BB000AF786099
:1016DC00396000237B6200233B6269E101227B6A53
:1016EC0002FA03F3FB613B681B68FA691340BB61A8
:1016FC00BA69FB699A4240F058813B685B689A4A28
:10170C0093425ED0984A934275D8984A934258D0E7
:10171C00964A93426FD8964A934252D0944A934237
:10172C0069D8944A93424CD0924A934263D8924AD5
:10173C00934246D0904A93425DD8122B2AD8122B52
:10174C0059D801A252F823F0CF170008A9170008A6
:10175C00BB170008FD170008031800080318000841
:10176C0003180008031800080318000803180008E1
:10177C0003180008031800080318000803180008D1
:10178C00031800080318000803180008B117000814
:10179C00C5170008794A934213D02CE03B68DB68EC
:1017AC003B6229E03B68DB6804333B6224E03B6826
:1017BC00DB6808333B621FE03B68DB680C333B6241
:1017CC001AE03B689B68002B02D104233B6213E0B8
:1017DC003B689B68012B05D108233B627B68FA6947
:1017EC001A6109E008233B627B68FA695A6103E0DD
:1017FC0000233B6200E000BFBB69FF2B01D87B6874
:10180C0001E07B6804337B61BB69FF2B02D87B6AE8
:10181C009B0002E07B6A083B9B003B617B691A687A
:10182C000F213B6901FA03F3DB431A40396A3B6928
:10183C0001FA03F31A437B691A603B685B6803F097
:10184C008053002B00F0B1804D4B9B694C4A43F008
:10185C00010393614A4B9B6903F00103BB60BB68B6
:10186C00484A7B6A9B08023352F82330FB607B6A40
:10187C0003F003039B000F2202FA03F3DB43FA6825
:10188C001340FB607B68404A934213D07B683F4A0D
:10189C0093420DD07B683E4A934207D07B683D4A09
:1018AC00934201D1032306E0042304E0022302E067
:1018BC00012300E000237A6A02F0030292009340B5
:1018CC00FA681343FB602F497B6A9B080233FA6862
:1018DC0041F823203B685B6803F48013002B06D08F
:1018EC002D4B9A682C49BB6913438B6006E02A4B3D
:1018FC009A68BB69DB43284913408B603B685B6883
:10190C0003F40013002B06D0234BDA682249BB6981
:10191C001343CB6006E0204BDA68BB69DB431E49FE
:10192C001340CB603B685B6803F40033002B06D09C
:10193C00194B5A681849BB6913434B6006E0164BA8
:10194C005A68BB69DB43144913404B603B685B68C6
:10195C0003F48033002B21D00F4B1A680E49BB695E
:10196C0013430B6021E000BF000032100000311067
:10197C0000002210000021100000121000001110B5
:10198C00001002400000014000080140000C014022
:10199C000010014000140140000401400B4B1A6878
:1019AC00BB69DB43094913400B607B6A01337B62E3
:1019BC003B681A687B6A22FA03F3002B7FF48EAE25
:1019CC0000BF00BF2C37BD4680BC704700040140EF
:1019DC0080B485B000AF78600B467B807B689A68DA
:1019EC007B881340002B02D00123FB7301E0002302
:1019FC00FB73FB7B18461437BD4680BC704780B424
:101A0C0083B000AF78600B467B8013467B707B788D
:101A1C00002B03D07A887B681A6103E07B881A0458
:101A2C007B681A6100BF0C37BD4680BC704780B420
:101A3C0085B000AF78600B467B807B68DB68FB6011
:101A4C007A88FB6813401A04FB68D9437B880B40E7
:101A5C001A437B681A6100BF1437BD4680BC7047BF
:101A6C0080B586B000AF78607B68002B01D1012374
:101A7C0072E27B681B6803F00103002B00F0878087
:101A8C00924B5B6803F00C03042B0CD08F4B5B6800
:101A9C0003F00C03082B12D18C4B5B6803F48033DE
:101AAC00B3F5803F0BD1894B1B6803F40033002B3B
:101ABC006CD07B685B68002B68D101234CE27B689F
:101ACC005B68B3F5803F06D1804B1B687F4A43F4BB
:101ADC00803313602EE07B685B68002B0CD17B4B52
:101AEC001B687A4A23F480331360784B1B68774A5F
:101AFC0023F4802313601DE07B685B68B3F5A02F93
:101B0C000CD1724B1B68714A43F4802313606F4BEA
:101B1C001B686E4A43F4803313600BE06B4B1B68FD
:101B2C006A4A23F480331360684B1B68674A23F4BA
:101B3C00802313607B685B68002B13D0FFF7ACFC31
:101B4C00386108E0FFF7A8FC02463B69D31A642B06
:101B5C0001D9032300E25D4B1B6803F40033002B17
:101B6C00F0D014E0FFF798FC386108E0FFF794FC24
:101B7C0002463B69D31A642B01D90323ECE1534B86
:101B8C001B6803F40033002BF0D100E000BF7B682E
:101B9C001B6803F00203002B63D04C4B5B6803F013
:101BAC000C03002B0BD0494B5B6803F00C03082B88
:101BBC001CD1464B5B6803F48033002B16D1434B8E
:101BCC001B6803F00203002B05D07B681B69012BFB
:101BDC0001D00123C0E13D4B1B6823F0F8027B6868
:101BEC005B69DB00394913430B603AE07B681B6986
:101BFC00002B20D0364B01221A60FFF74DFC3861C8
:101C0C0008E0FFF749FC02463B69D31A022B01D9C5
:101C1C000323A1E12D4B1B6803F00203002BF0D032
:101C2C002A4B1B6823F0F8027B685B69DB002749B1
:101C3C0013430B6015E0264B00221A60FFF72CFCB7
:101C4C00386108E0FFF728FC02463B69D31A022BE7
:101C5C0001D9032380E11D4B1B6803F00203002B09
:101C6C00F0D17B681B6803F00803002B3AD07B682B
:101C7C009B69002B19D0174B01221A60FFF70CFC43
:101C8C00386108E0FFF708FC02463B69D31A022BC7
:101C9C0001D9032360E10D4B5B6A03F00203002BB7
:101CAC00F0D0012000F09CFA1CE00A4B00221A60D4
:101CBC00FFF7F2FB38610FE0FFF7EEFB02463B69E2
:101CCC00D31A022B08D9032346E100BF00100240AF
:101CDC000000424280044242924B5B6A03F00203D2
:101CEC00002BE9D17B681B6803F00403002B00F088
:101CFC00A6800023FB758B4BDB6903F08053002B14
:101D0C000DD1884BDB69874A43F08053D361854BF7
:101D1C00DB6903F08053BB60BB680123FB75824B0E
:101D2C001B6803F48073002B18D17F4B1B687E4A11
:101D3C0043F480731360FFF7AFFB386108E0FFF7E3
:101D4C00ABFB02463B69D31A642B01D9032303E195
:101D5C00754B1B6803F48073002BF0D07B68DB6839
:101D6C00012B06D16F4B1B6A6E4A43F001031362C1
:101D7C002DE07B68DB68002B0CD16A4B1B6A694A2F
:101D8C0023F001031362674B1B6A664A23F00403BA
:101D9C0013621CE07B68DB68052B0CD1614B1B6A62
:101DAC00604A43F0040313625E4B1B6A5D4A43F0C6
:101DBC00010313620BE05B4B1B6A5A4A23F00103CD
:101DCC001362584B1B6A574A23F0040313627B6857
:101DDC00DB68002B15D0FFF75FFB38610AE0FFF7DB
:101DEC005BFB02463B69D31A41F28832934201D91C
:101DFC000323B1E04B4B1B6A03F00203002BEED024
:101E0C0014E0FFF749FB38610AE0FFF745FB024697
:101E1C003B69D31A41F28832934201D903239BE0E8
:101E2C00404B1B6A03F00203002BEED1FB7D012B10
:101E3C0005D13C4BDB693B4A23F08053D3617B6873
:101E4C00DB69002B00F08780364B5B6803F00C03DA
:101E5C00082B61D07B68DB69022B46D1334B002207
:101E6C001A60FFF719FB386108E0FFF715FB024613
:101E7C003B69D31A022B01D903236DE0294B1B6854
:101E8C0003F00073002BF0D17B681B6AB3F5803F25
:101E9C0008D1244B5B6823F400327B689B68214992
:101EAC0013434B601F4B5B6823F474127B68196AF5
:101EBC007B685B6A0B431B4913434B601B4B012232
:101ECC001A60FFF7E9FA386108E0FFF7E5FA024615
:101EDC003B69D31A022B01D903233DE0114B1B683C
:101EEC0003F00073002BF0D035E0104B00221A6089
:101EFC00FFF7D2FA386108E0FFF7CEFA02463B69E9
:101F0C00D31A022B01D9032326E0064B1B6803F0DE
:101F1C000073002BF0D11EE07B68DB69012B07D12D
:101F2C00012319E0001002400070004060004242A2
:101F3C000B4B5B68FB60FB6803F480327B681B6AAD
:101F4C009A4206D1FB6803F470127B685B6A9A4272
:101F5C0001D0012300E0002318461837BD4680BD90
:101F6C000010024080B584B000AF786039607B68A7
:101F7C00002B01D10123D0E06A4B1B6803F007034F
:101F8C003A689A4210D9674B1B6823F007026549DF
:101F9C003B6813430B60634B1B6803F007033A6801
:101FAC009A4201D00123B8E07B681B6803F002035E
:101FBC00002B20D07B681B6803F00403002B05D09A
:101FCC00594B5B68584A43F4E06353607B681B6869
:101FDC0003F00803002B05D0534B5B68524A43F4C3
:101FEC0060535360504B5B6823F0F0027B689B6836
:101FFC004D4913434B607B681B6803F00103002BB6
:10200C0040D07B685B68012B07D1474B1B6803F4FE
:10201C000033002B15D101237FE07B685B68022B1A
:10202C0007D1414B1B6803F00073002B09D101232E
:10203C0073E03D4B1B6803F00203002B01D101231D
:10204C006BE0394B5B6823F003027B685B683649B5
:10205C0013434B60FFF720FAF8600AE0FFF71CFA15
:10206C000246FB68D31A41F28832934201D903230A
:10207C0053E02D4B5B6803F00C027B685B689B00A4
:10208C009A42EBD1274B1B6803F007033A689A423C
:10209C0010D2244B1B6823F0070222493B681343E0
:1020AC000B60204B1B6803F007033A689A4201D07F
:1020BC00012332E07B681B6803F00403002B08D07B
:1020CC00194B5B6823F4E0627B68DB6816491343A9
:1020DC004B607B681B6803F00803002B09D0124B84
:1020EC005B6823F460527B681B69DB000E49134369
:1020FC004B6000F021F802460B4B5B681B0903F0A8
:10210C000F030A49CB5C22FA03F3094A1360094B0B
:10211C001B681846FFF77EF9002318461037BD469A
:10212C0080BD00BF0020024000100240942A00082D
:10213C004C0000205000002080B487B000AF00237A
:10214C00FB600023BB6000237B6100237B600023CA
:10215C003B611E4B5B68FB60FB6803F00C03042BBC
:10216C0002D0082B03D027E0194B3B6127E0FB681A
:10217C009B0C03F00F03174AD35C7B60FB6803F4E2
:10218C008033002B10D0114B5B685B0C03F0010308
:10219C00114AD35CBB607B680D4A03FB02F2BB683F
:1021AC00B2FBF3F37B6104E07B680C4A02FB03F3A4
:1021BC007B617B693B6102E0054B3B6100BF3B6986
:1021CC0018461C37BD4680BC704700BF001002404B
:1021DC0000127A00A42A0008B42A000800093D0065
:1021EC0080B485B000AF78600A4B1B680A4AA2FB2A
:1021FC0003235B0A7A6802FB03F3FB6000BFFB68F6
:10220C005A1EFA60002BF9D100BF00BF1437BD462F
:10221C0080BC70474C000020D34D621080B582B05A
:10222C0000AF78607B68002B01D1012341E07B6813
:10223C0093F83D30DBB2002B06D17B68002283F88B
:10224C003C207868FFF74EF87B68022283F83D202B
:10225C007B681A687B6804331946104600F074FAE0
:10226C007B68012283F846207B68012283F83E209C
:10227C007B68012283F83F207B68012283F8402091
:10228C007B68012283F841207B68012283F842207D
:10229C007B68012283F843207B68012283F8442069
:1022AC007B68012283F845207B68012283F83D205E
:1022BC00002318460837BD4680BD000080B485B0A9
:1022CC0000AF78607B6893F83D30DBB2012B01D016
:1022DC0001233AE07B68022283F83D207B681B686F
:1022EC00DA687B681B6842F00102DA607B681B6865
:1022FC00184A93420ED07B681B68B3F1804F09D00B
:10230C007B681B68144A934204D07B681B68134A91
:10231C00934211D17B681B689B6803F00703FB6039
:10232C00FB68062B10D07B681B681A687B681B68DF
:10233C0042F001021A6007E07B681B681A687B6830
:10234C001B6842F001021A60002318461437BD4680
:10235C0080BC7047002C0140000400400008004085
:10236C0080B582B000AF78607B681B681B6903F096
:10237C000203022B22D17B681B68DB6803F002038B
:10238C00022B1BD17B681B686FF002021A617B6801
:10239C0001221A777B681B689B6903F00303002BEF
:1023AC0003D0786800F0B4F905E0786800F0A7F97C
:1023BC00786800F0B6F97B6800221A777B681B6896
:1023CC001B6903F00403042B22D17B681B68DB68B8
:1023DC0003F00403042B1BD17B681B686FF0040211
:1023EC001A617B6802221A777B681B689B6903F46D
:1023FC004073002B03D0786800F08AF905E0786808
:10240C0000F07DF9786800F08CF97B6800221A776F
:10241C007B681B681B6903F00803082B22D17B68BF
:10242C001B68DB6803F00803082B1BD17B681B6857
:10243C006FF008021A617B6804221A777B681B68AC
:10244C00DB6903F00303002B03D0786800F060F91C
:10245C0005E0786800F053F9786800F062F97B6861
:10246C0000221A777B681B681B6903F01003102B82
:10247C0022D17B681B68DB6803F01003102B1BD187
:10248C007B681B686FF010021A617B6808221A7750
:10249C007B681B68DB6903F44073002B03D07868FE
:1024AC0000F036F905E0786800F029F9786800F05A
:1024BC0038F97B6800221A777B681B681B6903F06C
:1024CC000103012B0ED17B681B68DB6803F0010351
:1024DC00012B07D17B681B686FF001021A617868C9
:1024EC00FEF774FE7B681B681B6903F08003802B6E
:1024FC000ED17B681B68DB6803F08003802B07D14F
:10250C007B681B686FF080021A61786800F07BFAB8
:10251C007B681B681B6903F04003402B0ED17B6862
:10252C001B68DB6803F04003402B07D17B681B68FA
:10253C006FF040021A61786800F0FCF87B681B6849
:10254C001B6903F02003202B0ED17B681B68DB6812
:10255C0003F02003202B07D17B681B686FF020024F
:10256C001A61786800F046FA00BF0837BD4680BD96
:10257C0080B584B000AF786039600023FB737B6852
:10258C0093F83C30012B01D10223B4E07B6801228B
:10259C0083F83C207B68022283F83D207B681B6813
:1025AC009B68BB60BB6823F07703BB60BB6823F4FC
:1025BC007F43BB607B681B68BA689A603B681B688A
:1025CC00B3F5005F3ED0B3F5005F00F28780B3F542
:1025DC00805F00F08680B3F5805F7FD8702B1AD0B7
:1025EC00702B7BD8602B50D0602B77D8502B3CD0E5
:1025FC00502B73D8402B58D0402B6FD8302B64D035
:10260C00302B6BD8202B60D0202B67D8002B5CD0C4
:10261C00102B5AD062E07B6818683B6899683B685D
:10262C005A683B68DB6800F068F97B681B689B683C
:10263C00BB60BB6843F07703BB607B681B68BA6800
:10264C009A604FE07B6818683B6899683B685A68E9
:10265C003B68DB6800F051F97B681B689A687B6803
:10266C001B6842F480429A603CE07B6818683B68C7
:10267C0059683B68DB681A4600F0C8F87B681B6831
:10268C005021184600F01FF92CE07B6818683B6855
:10269C0059683B68DB681A4600F0E6F87B681B68F3
:1026AC006021184600F00FF91CE07B6818683B6845
:1026BC0059683B68DB681A4600F0A8F87B681B6811
:1026CC004021184600F0FFF80CE07B681A683B6864
:1026DC001B681946104600F0F6F803E00123FB7363
:1026EC0000E000BF7B68012283F83D207B6800225C
:1026FC0083F83C20FB7B18461037BD4680BD80B468
:10270C0083B000AF786000BF0C37BD4680BC70470B
:10271C0080B483B000AF786000BF0C37BD4680BC7E
:10272C00704780B483B000AF786000BF0C37BD46F3
:10273C0080BC704780B483B000AF786000BF0C37AA
:10274C00BD4680BC7047000080B485B000AF786097
:10275C0039607B681B68FB607B68294A93420BD00D
:10276C007B68B3F1804F07D07B68264A934203D035
:10277C007B68254A934208D1FB6823F07003FB6009
:10278C003B685B68FA681343FB607B681C4A9342A6
:10279C000BD07B68B3F1804F07D07B68194A93420A
:1027AC0003D07B68184A934208D1FB6823F440732A
:1027BC00FB603B68DB68FA681343FB60FB6823F043
:1027CC0080023B685B691343FB607B68FA681A60A4
:1027DC003B689A687B68DA623B681A687B689A6225
:1027EC007B68074A934203D13B681A697B681A637A
:1027FC007B6801225A6100BF1437BD4680BC70470C
:10280C00002C0140000400400008004080B487B058
:10281C0000AFF860B9607A60FB681B6A7B61FB688B
:10282C001B6A23F00102FB681A62FB689B693B611F
:10283C003B6923F0F0033B617B681B013A6913434E
:10284C003B617B6923F00A037B617A69BB681343A4
:10285C007B61FB683A699A61FB687A691A6200BF0E
:10286C001C37BD4680BC704780B487B000AFF860A1
:10287C00B9607A60FB681B6A7B61FB681B6A23F09A
:10288C001002FB681A62FB689B693B613B6923F48D
:10289C0070433B617B681B033A6913433B617B6963
:1028AC0023F0A0037B61BB681B017A6913437B6136
:1028BC00FB683A699A61FB687A691A6200BF1C3737
:1028CC00BD4680BC704780B485B000AF786039607D
:1028DC007B689B68FB60FB6823F07003FB603A68C5
:1028EC00FB68134343F00703FB607B68FA689A604C
:1028FC0000BF1437BD4680BC704780B487B000AFB2
:10290C00F860B9607A603B60FB689B687B617B69AF
:10291C0023F47F437B613B681A027B681A43BB68D4
:10292C0013437A6913437B61FB687A699A6000BF31
:10293C001C37BD4680BC704780B485B000AF786052
:10294C0039607B6893F83C30012B01D1022346E0BF
:10295C007B68012283F83C207B68022283F83D20AF
:10296C007B681B685B68FB607B681B689B68BB6053
:10297C00FB6823F07003FB603B681B68FA68134329
:10298C00FB607B681B68FA685A607B681B68164A98
:10299C0093420ED07B681B68B3F1804F09D07B68E3
:1029AC001B68124A934204D07B681B68104A9342FE
:1029BC000CD1BB6823F08003BB603B685B68BA68D2
:1029CC001343BB607B681B68BA689A607B68012202
:1029DC0083F83D207B68002283F83C2000231846B6
:1029EC001437BD4680BC7047002C014000040040E9
:1029FC000008004080B483B000AF786000BF0C3793
:102A0C00BD4680BC704780B483B000AF786000BF17
:102A1C000C37BD4680BC704703460244934200D13C
:102A2C00704703F8011BF9E770B500260C4D0D4CEF
:102A3C00641BA410A64209D100F01AF800260A4D16
:102A4C000A4C641BA410A64205D170BD55F8043B7A
:102A5C0098470136EEE755F8043B98470136F2E704
:102A6C00B82A0008B82A0008B82A0008BC2A0008AE
:102A7C00F8B500BFF8BC08BC9E467047F8B500BF5F
:082A8C00F8BC08BC9E4670472F
:102A9400000000000000000001020304060708090A
:102AA40002030405060708090A0B0C0D0E0F10108B
:042AB400010200001B
:042AB80031010008E0
:042ABC000D01000800
:102AC0008000000001000000002000000100000064
:102AD00001000000010000000100000001000000F2
:102AE00001000000010000000100000001000000E2
:102AF000010000000100000001000000F4010000DE
:102B00000500000003000000020000000024F400A3
:082B10001000000001000000AC
:04000005080013A933
:00000001FF
