:020000040800F2
:1000000000500020B11000084110000847100008FF
:100010004D1000085310000859100008000000009F
:100020000000000000000000000000005F10000859
:100030006B10000800000000771000088310000813
:10004000F9100008F9100008F9100008F91000086C
:10005000F9100008F9100008F9100008F91000085C
:10006000F9100008F9100008F9100008F91000084C
:10007000F9100008F9100008F9100008F91000083C
:10008000F9100008F9100008F9100008F91000082C
:10009000F9100008F9100008F9100008F91000081C
:1000A000F9100008F9100008F9100008F91000080C
:1000B00091100008F9100008F9100008F910000864
:1000C000F9100008F9100008F9100008F9100008EC
:1000D000F9100008F9100008F9100008F9100008DC
:1000E000F9100008F9100008F910000800000000DD
:1000F0000000000000000000000000000000000000
:0C01000000000000000000005FF808F1A3
:10010C0010B5054C237833B9044B13B10448AFF345
:10011C0000800123237010BD580000200000000057
:10012C005427000808B5034B1BB103490348AFF330
:10013C00008008BD000000005C000020542700086F
:10014C0080B483B000AF7860094A7B6852F82330E2
:10015C00012B06D1064A7B68002142F823100123AB
:10016C0000E0002318460C37BD4680BC704700BF2A
:10017C007400002080B483B000AF7860044A7B68C0
:10018C00012142F8231000BF0C37BD4680BC7047DC
:10019C007400002080B582B000AF00237B6089E042
:1001AC00494A7B6852F8232048497B6841F8232050
:1001BC00474A7B6852F8232043497B6841F8232047
:1001CC007B68002B0FD1434A7B6852F823309BB2DB
:1001DC001946414801F080FA034619463C4A7B68AF
:1001EC0042F8231021E07B68012B0FD1394A7B6840
:1001FC0052F823309BB21946384801F06DFA034689
:10020C001946334A7B6842F823100EE0314A7B686A
:10021C0052F823309BB21946304801F05DFA034680
:10022C0019462B4A7B6842F82310274A7B6852F800
:10023C00232027497B6851F823309A4237D1224A30
:10024C007B6852F8232021497B6851F823309A426D
:10025C002DD11E4A7B6852F8232021497B6851F826
:10026C0023309A4215D0194A7B6852F823201C4936
:10027C007B6841F823201A4A7B6852F82330002B04
:10028C0015D1184B4FF4FA721A607868FFF772FFA9
:10029C000DE0144B1B68013B124A1360114B1B6899
:1002AC00002B04D10E4A7B68012142F823107B6895
:1002BC0001337B607B68022B7FF772AF00BF00BFFE
:1002CC000837BD4680BD00BF180000202400002068
:1002DC000C00002000000020000C01400010014028
:1002EC00300000203C00002080B582B000AF786068
:1002FC007B68092B00F2AC8101A252F823F000BFFD
:10030C003503000885030008D50300082504000800
:10031C0075040008C50400081505000865050008EB
:10032C00B50500080506000800224FF48071C64888
:10033C0001F0E9F900224FF40071C34801F0E3F930
:10034C0000224FF48061C04801F0DDF90022042145
:10035C00BD4801F0D8F900220821BB4801F0D3F9BF
:10036C0000224FF48061B94801F0CDF9012220211F
:10037C00B64801F0C8F993E101224FF48071B248FC
:10038C0001F0C1F900224FF40071AF4801F0BBF944
:10039C0000224FF48061AC4801F0B5F90122042130
:1003AC00A94801F0B0F901220821A74801F0ABF9E6
:1003BC0001224FF48061A54801F0A5F9012220210A
:1003CC00A24801F0A0F96BE100224FF480719E4825
:1003DC0001F099F900224FF400719B4801F093F958
:1003EC0001224FF48061984801F08DF9002204211C
:1003FC00954801F088F900220821934801F083F90F
:10040C0001224FF48061914801F07DF900222021F6
:10041C008E4801F078F943E100224FF480718A484C
:10042C0001F071F900224FF40071874801F06BF96B
:10043C0000224FF48061844801F065F90022042108
:10044C00814801F060F9012208217F4801F05BF935
:10045C0001224FF480617D4801F055F900222021E2
:10046C007A4801F050F91BE101224FF48071764873
:10047C0001F049F900224FF40071734801F043F97F
:10048C0000224FF48061704801F03DF901220421F3
:10049C006D4801F038F9012208216B4801F033F95D
:1004AC0000224FF48061694801F02DF900222021CF
:1004BC00664801F028F9F3E000224FF4807162489D
:1004CC0001F021F901224FF400715F4801F01BF992
:1004DC0000224FF480615C4801F015F900220421E0
:1004EC00594801F010F901220821574801F00BF985
:1004FC0000224FF48061554801F005F900222021BB
:10050C00524801F000F9CBE000224FF480714E48C4
:10051C0001F0F9F801224FF400714B4801F0F3F8A7
:10052C0000224FF48061484801F0EDF800220421CC
:10053C00454801F0E8F800220821434801F0E3F8AF
:10054C0000224FF48061414801F0DDF800222021A7
:10055C003E4801F0D8F8A3E000224FF480713A48ED
:10056C0001F0D1F800224FF40071374801F0CBF8BC
:10057C0000224FF48061344801F0C5F801220421B7
:10058C00314801F0C0F8012208212F4801F0BBF8D6
:10059C0001224FF480612D4801F0B5F80122202191
:1005AC002A4801F0B0F87BE000224FF48071264815
:1005BC0001F0A9F800224FF40071234801F0A3F8D0
:1005CC0000224FF48061204801F09DF800220421A4
:1005DC001D4801F098F8002208211B4801F093F8FF
:1005EC0000224FF48061194801F08DF8002220217F
:1005FC00164801F088F853E000224FF4807112483D
:10060C0001F081F800224FF400710F4801F07BF8E3
:10061C0000224FF480610C4801F075F8002204218F
:10062C00094801F070F801220821074801F06BF825
:10063C0000224FF48061054801F065F8002220216A
:10064C00024801F060F82BE000080140000C01406A
:10065C0001224FF48071144801F055F801224FF437
:10066C000071114801F04FF801224FF480610E48DF
:10067C0001F049F8012204210B4801F044F8012251
:10068C000821094801F03FF801224FF48061074826
:10069C0001F039F801222021044801F034F800BFA0
:1006AC0000BF0837BD4680BD00080140000C01406A
:1006BC0080B582B000AF78607B68042B75D801A23E
:1006CC0052F823F0E50600080F0700083907000868
:1006DC00630700088D07000801224021354801F00E
:1006EC0012F801222021334801F00DF8012240219B
:1006FC00314801F008F801228021304801F003F85C
:10070C0054E0002240212B4800F0FDFF0122202163
:10071C00284800F0F8FF01224021274800F0F3FFA1
:10072C0001228021254800F0EEFF3FE0012240210C
:10073C00204800F0E8FF002220211E4800F0E3FFD3
:10074C00012240211C4800F0DEFF012280211B48C1
:10075C0000F0D9FF2AE001224021164800F0D3FF17
:10076C0001222021134800F0CEFF00224021124824
:10077C0000F0C9FF01228021104800F0C4FF15E0F1
:10078C00012240210B4800F0BEFF01222021094824
:10079C0000F0B9FF01224021074800F0B4FF00220D
:1007AC008021064800F0AFFF00E000BF00BF083713
:1007BC00BD4680BD00080140000C01400010014006
:1007CC0080B500AF324B1B78013B032B5CD801A2E8
:1007DC0052F823F0F1070008150800084308000838
:1007EC00670800082B4B1B682B4A82FB03129210E4
:1007FC00DB17D31A1846FFF777FD0120FFF758FFD8
:10080C00234B02221A7040E0224B1A68224B83FBC6
:10081C0002139910D317C91A0B469B000B445B00AB
:10082C00D11A0846FFF760FD0220FFF741FF184B75
:10083C0003221A7029E0194B1B68174A82FB03121A
:10084C009210DB17D31A1846FFF74EFD0320FFF763
:10085C002FFF0F4B04221A7017E0104B1A680E4B27
:10086C0083FB02139910D317C91A0B469B000B4438
:10087C005B00D11A0846FFF737FD0420FFF718FF7D
:10088C00034B01221A7000E000BF00BF80BD00BF07
:10089C00810000204000002067666666440000204E
:1008AC0080B582B000AF7860274B1B78013B032BDF
:1008BC0045D801A252F823F0D5080008E908000831
:1008CC00FD0800081F0900080020FFF70DFD01209E
:1008DC00FFF7EEFE1C4B02221A7031E00020FFF7EE
:1008EC0003FD0220FFF7E4FE174B03221A7027E0EA
:1008FC007B68164A82FB03129210DB17D31A184638
:10090C00FFF7F2FC0320FFF7D3FE0F4B04221A7003
:10091C0016E07A680D4B83FB02139910D317C91A92
:10092C000B469B000B445B00D11A0846FFF7DCFC1E
:10093C000420FFF7BDFE044B01221A7000E000BF3B
:10094C0000BF0837BD4680BD810000206766666623
:10095C0080B500AF254B1B78012B45D10020FFF74C
:10096C00EFFB0346012B09D1214B01221A701F4BBF
:10097C0002221A701921022000F0D6FA1D4B1B68B6
:10098C00012B27D11C4B1B683B2B07DD1B4B1B681A
:10099C0001331A4A1360184B00221A60174B1B685C
:1009AC003B2B07DD164B1B680133154A1360134BA9
:1009BC0000221A60124B1B680B2B02DD104B00221D
:1009CC001A600D4B1B6801330B4A13606421002025
:1009DC0000F0AAFA074B5B68012B05D1FFF7F0FE7C
:1009EC001921012000F0A0FA00BF80BD800000207A
:1009FC0081000020F400002048000020440000206A
:100A0C004000002080B500AF8E4B1B78042B00F00B
:100A1C00CD80042B00F30C81022B02D0032B6FD062
:100A2C0006E1894B9B68012B08D1884B1B68184643
:100A3C00FFF736FF1921022000F076FA0120FFF7AC
:100A4C007FFB0346012B23D1804B1B6801337F4A6C
:100A5C0013607E4B1B683B2B07DD7D4B1B68013302
:100A6C007B4A1360794B00221A60794B1B683B2B35
:100A7C0007DD784B1B680133764A1360744B0022F8
:100A8C001A60744B1B68172B02DD724B00221A6024
:100A9C000220FFF755FB0346012B23D16B4B1B6840
:100AAC00013B6A4A1360694B1B68002B07DA684BE1
:100ABC001B68013B664A1360644B3B221A60644B13
:100ACC001B68002B07DA634B1B68013B614A136000
:100ADC005F4B3B221A605F4B1B68002B02DA5D4BAD
:100AEC0017221A600020FFF72BFB0346012B40F066
:100AFC00A180544B03221A70574B01221A7099E0B3
:100B0C00514B9B68012B08D1514B1B681846FFF7C2
:100B1C00C7FE1921022000F007FA0120FFF710FB95
:100B2C000346012B17D14A4B1B680133484A13600B
:100B3C00474B1B683B2B07DD464B1B680133454A73
:100B4C001360434B00221A60424B1B68172B02DDCB
:100B5C00404B00221A600220FFF7F2FA0346012BE9
:100B6C0017D13B4B1B68013B394A1360384B1B6850
:100B7C00002B07DA374B1B68013B364A1360344BAA
:100B8C003B221A60334B1B68002B02DA314B1722C5
:100B9C001A600020FFF7D4FA0346012B4CD1294BE5
:100BAC0004221A702C4B01221A7045E0264B9B68CC
:100BBC00012B08D1274B1B681846FFF771FE192132
:100BCC00022000F0B1F90120FFF7BAFA0346012B1D
:100BDC000BD1204B1B6801331E4A13601D4B1B6845
:100BEC00172B02DD1B4B00221A600220FFF7A8FA1C
:100BFC000346012B0BD1174B1B68013B154A1360A5
:100C0C00144B1B68002B02DA124B17221A600020BF
:100C1C00FFF796FA0346012B10D100F01FF8642160
:100C2C00002000F081F91921012000F07DF905E088
:100C3C0000BF04E000BF02E000BF00E000BF00BF47
:100C4C0080BD00BF80000020F40000204800002080
:100C5C0044000020400000208100002080B400AF40
:100C6C00044B01221A70044B01221A7000BFBD46BE
:100C7C0080BC7047800000208100002080B500AF50
:100C8C0000F036FA00F018F800F09EF800F050F87A
:100C9C00084801F07FF9FFF7E1FF6421002000F024
:100CAC0043F91921012000F03FF9FFF751FEFFF73E
:100CBC00A9FEFAE78400002080B590B000AF07F1E0
:100CCC00180328220021184601F012FD3B1D0022BA
:100CDC001A605A609A60DA601A610223BB610123C0
:100CEC00BB621023FB6200237B6307F118031846D9
:100CFC0000F022FD0346002B01D000F00FF90F236A
:100D0C007B600023BB600023FB6000233B6100235E
:100D1C007B613B1D0021184600F090FF0346002B21
:100D2C0001D000F0FBF800BF4037BD4680BD00008D
:100D3C0080B586B000AF07F1080300221A605A6034
:100D4C009A60DA603B4600221A605A601D4B4FF0E5
:100D5C0080421A601B4B41F63F725A60194B0022BD
:100D6C009A60184B0A22DA60164B00221A61154B56
:100D7C0000229A61134801F0BDF80346002B01D004
:100D8C0000F0CCF84FF48053BB6007F10803194610
:100D9C000C4801F059FA0346002B01D000F0BEF8C4
:100DAC0000233B6000237B603B461946054801F05D
:100DBC002FFC0346002B01D000F0B0F800BF183711
:100DCC00BD4680BD8400002080B588B000AF07F11F
:100DDC00100300221A605A609A60DA60404B9B69DB
:100DEC003F4A43F0100393613D4B9B6903F01003A2
:100DFC00FB60FB683A4B9B69394A43F004039361EF
:100E0C00374B9B6903F00403BB60BB68344B9B6995
:100E1C00334A43F008039361314B9B6903F0080399
:100E2C007B607B68012240F20C712E4800F06BFC59
:100E3C000022E0212B4800F066FC01224FF48C616B
:100E4C00294800F060FC00228021284800F05BFC5F
:100E5C0003233B6100237B610123BB6107F110037A
:100E6C001946224800F0B4FA40F2EC733B610123BE
:100E7C007B610023BB610223FB6107F11003194660
:100E8C00184800F0A5FA01233B6100237B61012384
:100E9C00BB6107F110031946134800F099FA4FF49F
:100EAC008C633B6101237B610023BB610223FB61EB
:100EBC0007F1100319460C4800F08AFA80233B61B5
:100ECC0001237B610023BB610223FB6107F110034B
:100EDC001946064800F07CFA00BF2037BD4680BD9D
:100EEC000010024000080140000C014000100140BD
:100EFC0080B582B000AF7860FFF74CF9002000F0AD
:100F0C002BF8012000F028F8022000F025F803202F
:100F1C0000F022F800BF0837BD4680BD80B400AF9A
:100F2C0072B600BFFEE7000080B483B000AF7860FB
:100F3C00396007497B683A6841F82320054A7B6889
:100F4C00002142F8231000BF0C37BD4680BC70470F
:100F5C00CC000020F400002080B483B000AF786097
:100F6C000F4A7B6852F82330002B13DD0C4A7B6848
:100F7C0052F823305A1E0A497B6841F82320084A4C
:100F8C007B6852F82330002B04DC064A7B68012175
:100F9C0042F8231000BF0C37BD4680BC704700BF21
:100FAC00CC000020F400002080B483B000AF0E4BC6
:100FBC009B690D4A43F0010393610B4B9B6903F052
:100FCC0001037B607B68084BDB69074A43F0805365
:100FDC00D361054BDB6903F080533B603B6800BF7A
:100FEC000C37BD4680BC70470010024080B584B001
:100FFC0000AF78607B681B68B3F1804F13D10C4B4A
:10100C00DB690B4A43F00103D361094BDB6903F045
:10101C000103FB60FB68002200211C2000F0A1F9F9
:10102C001C2000F0BAF900BF1037BD4680BD00BFD0
:10103C000010024080B400AFFEE780B400AFFEE7C2
:10104C0080B400AFFEE780B400AFFEE780B400AF21
:10105C00FEE780B400AF00BFBD4680BC704780B4D3
:10106C0000AF00BFBD4680BC704780B400AF00BF6E
:10107C00BD4680BC704780B500AF00F07FF800BF64
:10108C0080BD000080B500AF024800F0D5FF00BF66
:10109C0080BD00BF8400002080B400AF00BFBD46FF
:1010AC0080BC7047FFF7F8FF0B480C490C4A002333
:1010BC0002E0D458C4500433C4188C42F9D3094A02
:1010CC00094C002301E013600432A242FBD301F06F
:1010DC0017FBFFF7D3FD70470000002058000020DD
:1010EC00982700085800002020010020FEE700008F
:1010FC0080B500AF084B1B68074A43F01003136020
:10110C00032000F023F90F2000F008F8FFF74CFF44
:10111C000023184680BD00BF0020024080B582B07D
:10112C0000AF7860124B1A68124B1B7819464FF4BB
:10113C007A73B3FBF1F3B2FBF3F3184600F03BF90F
:10114C000346002B01D001230EE07B680F2B0AD83D
:10115C00002279684FF0FF3000F003F9064A7B68F3
:10116C001360002300E0012318460837BD4680BDFC
:10117C004C000020540000205000002080B400AF30
:10118C00054B1B781A46054B1B681344034A136026
:10119C0000BFBD4680BC7047540000201C010020DD
:1011AC0080B400AF024B1B681846BD4680BC70472C
:1011BC001C01002080B485B000AF78607B6803F020
:1011CC000703FB600C4BDB68BB60BA684FF6FF0390
:1011DC001340BB60FB681A02BB68134343F0BF6348
:1011EC0043F40033BB60044ABB68D36000BF1437C0
:1011FC00BD4680BC704700BF00ED00E080B400AF7E
:10120C00044BDB681B0A03F007031846BD4680BC81
:10121C00704700BF00ED00E080B483B000AF034620
:10122C00FB7197F90730002B0BDBFB7903F01F02E6
:10123C00064997F907305B09012000FA02F241F8E0
:10124C00232000BF0C37BD4680BC704700E100E096
:10125C0080B483B000AF03463960FB7197F9073057
:10126C00002B0ADB3B68DAB20C4997F90730120104
:10127C00D2B20B4483F800230AE03B68DAB2084987
:10128C00FB7903F00F03043B1201D2B20B441A7624
:10129C0000BF0C37BD4680BC704700BF00E100E0CA
:1012AC0000ED00E080B489B000AFF860B9607A60FE
:1012BC00FB6803F00703FB61FB69C3F10703042B15
:1012CC0028BF0423BB61FB690433062B02D9FB69DD
:1012DC00033B00E000237B614FF0FF32BB6902FA55
:1012EC0003F3DA43BB681A407B699A404FF0FF3135
:1012FC007B6901FA03F3D9437B680B40134318460F
:10130C002437BD4680BC704780B582B000AF786092
:10131C007B68013BB3F1807F01D301230FE00A4AC4
:10132C007B68013B53600F214FF0FF30FFF790FFBC
:10133C00054B00229A60044B07221A6000231846C2
:10134C000837BD4680BD00BF10E000E080B582B01C
:10135C0000AF78607868FFF72DFF00BF0837BD46F7
:10136C0080BD80B586B000AF0346B9607A60FB7370
:10137C0000237B61FFF742FF78617A68B96878696E
:10138C00FFF790FF024697F90F3011461846FFF70A
:10139C005FFF00BF1837BD4680BD80B582B000AF7F
:1013AC000346FB7197F907301846FFF735FF00BF6E
:1013BC000837BD4680BD80B582B000AF78607868D4
:1013CC00FFF7A2FF034618460837BD4680BD000054
:1013DC0080B48BB000AF7860396000237B6200234F
:1013EC003B6269E101227B6A02FA03F3FB613B6811
:1013FC001B68FA691340BB61BA69FB699A4240F0F9
:10140C0058813B685B689A4A93425ED0984A9342F3
:10141C0075D8984A934258D0964A93426FD8964AB8
:10142C00934252D0944A934269D8944A93424CD0F6
:10143C00924A934263D8924A934246D0904A93423E
:10144C005DD8122B2AD8122B59D801A252F823F0AE
:10145C00D7140008B1140008C314000805150008BF
:10146C000B1500080B1500080B1500080B150008D0
:10147C000B1500080B1500080B1500080B150008C0
:10148C000B1500080B1500080B1500080B150008B0
:10149C000B150008B9140008CD140008794A9342C2
:1014AC0013D02CE03B68DB683B6229E03B68DB68CF
:1014BC0004333B6224E03B68DB6808333B621FE08B
:1014CC003B68DB680C333B621AE03B689B68002B83
:1014DC0002D104233B6213E03B689B68012B05D1CE
:1014EC0008233B627B68FA691A6109E008233B62B6
:1014FC007B68FA695A6103E000233B6200E000BF9D
:10150C00BB69FF2B01D87B6801E07B6804337B61EE
:10151C00BB69FF2B02D87B6A9B0002E07B6A083B0D
:10152C009B003B617B691A680F213B6901FA03F34D
:10153C00DB431A40396A3B6901FA03F31A437B69AE
:10154C001A603B685B6803F08053002B00F0B1809D
:10155C004D4B9B694C4A43F0010393614A4B9B6989
:10156C0003F00103BB60BB68484A7B6A9B080233EB
:10157C0052F82330FB607B6A03F003039B000F22BD
:10158C0002FA03F3DB43FA681340FB607B68404AC2
:10159C00934213D07B683F4A93420DD07B683E4AFE
:1015AC00934207D07B683D4A934201D1032306E066
:1015BC00042304E0022302E0012300E000237A6A02
:1015CC0002F0030292009340FA681343FB602F4928
:1015DC007B6A9B080233FA6841F823203B685B68FE
:1015EC0003F48013002B06D02D4B9A682C49BB6951
:1015FC0013438B6006E02A4B9A68BB69DB4328498E
:10160C0013408B603B685B6803F40013002B06D01F
:10161C00234BDA682249BB691343CB6006E0204BAD
:10162C00DA68BB69DB431E491340CB603B685B68DF
:10163C0003F40033002B06D0194B5A681849BB69C8
:10164C0013434B6006E0164B5A68BB69DB431449E5
:10165C0013404B603B685B6803F48033002B21D054
:10166C000F4B1A680E49BB6913430B6021E000BF96
:10167C000000321000003110000022100000211078
:10168C000000121000001110001002400000014078
:10169C0000080140000C0140001001400014014002
:1016AC00000401400B4B1A68BB69DB43094913402A
:1016BC000B607B6A01337B623B681A687B6A22FA97
:1016CC0003F3002B7FF48EAE00BF00BF2C37BD465A
:1016DC0080BC70470004014080B485B000AF7860D6
:1016EC000B467B807B689A687B881340002B02D06A
:1016FC000123FB7301E00023FB73FB7B18461437BB
:10170C00BD4680BC704780B483B000AF78600B4698
:10171C007B8013467B707B78002B03D07A887B68A8
:10172C001A6103E07B881A047B681A6100BF0C37CE
:10173C00BD4680BC7047000080B586B000AF7860B5
:10174C007B68002B01D1012372E27B681B6803F0DC
:10175C000103002B00F08780924B5B6803F00C03B5
:10176C00042B0CD08F4B5B6803F00C03082B12D1AD
:10177C008C4B5B6803F48033B3F5803F0BD1894B02
:10178C001B6803F40033002B6CD07B685B68002B68
:10179C0068D101234CE27B685B68B3F5803F06D1CE
:1017AC00804B1B687F4A43F4803313602EE07B68C8
:1017BC005B68002B0CD17B4B1B687A4A23F480337B
:1017CC001360784B1B68774A23F4802313601DE069
:1017DC007B685B68B3F5A02F0CD1724B1B68714A08
:1017EC0043F4802313606F4B1B686E4A43F48033C1
:1017FC0013600BE06B4B1B686A4A23F48033136055
:10180C00684B1B68674A23F4802313607B685B6812
:10181C00002B13D0FFF7C4FC386108E0FFF7C0FCC5
:10182C0002463B69D31A642B01D9032300E25D4BBA
:10183C001B6803F40033002BF0D014E0FFF7B0FC6E
:10184C00386108E0FFF7ACFC02463B69D31A642B05
:10185C0001D90323ECE1534B1B6803F40033002B39
:10186C00F0D100E000BF7B681B6803F00203002B83
:10187C0063D04C4B5B6803F00C03002B0BD0494B33
:10188C005B6803F00C03082B1CD1464B5B6803F41C
:10189C008033002B16D1434B1B6803F00203002B43
:1018AC0005D07B681B69012B01D00123C0E13D4BA6
:1018BC001B6823F0F8027B685B69DB003949134332
:1018CC000B603AE07B681B69002B20D0364B012261
:1018DC001A60FFF765FC386108E0FFF761FC02460F
:1018EC003B69D31A022B01D90323A1E12D4B1B68B1
:1018FC0003F00203002BF0D02A4B1B6823F0F802F4
:10190C007B685B69DB00274913430B6015E0264BB2
:10191C0000221A60FFF744FC386108E0FFF740FC36
:10192C0002463B69D31A022B01D9032380E11D4BDC
:10193C001B6803F00203002BF0D17B681B6803F0DB
:10194C000803002B3AD07B689B69002B19D0174BEE
:10195C0001221A60FFF724FC386108E0FFF720FC35
:10196C0002463B69D31A022B01D9032360E10D4BCC
:10197C005B6A03F00203002BF0D0012000F09CFA0C
:10198C001CE00A4B00221A60FFF70AFC38610FE0DA
:10199C00FFF706FC02463B69D31A022B08D9032336
:1019AC0046E100BF00100240000042428004424267
:1019BC00924B5B6A03F00203002BE9D17B681B6836
:1019CC0003F00403002B00F0A6800023FB758B4B67
:1019DC00DB6903F08053002B0DD1884BDB69874A00
:1019EC0043F08053D361854BDB6903F08053BB60BC
:1019FC00BB680123FB75824B1B6803F48073002BBF
:101A0C0018D17F4B1B687E4A43F480731360FFF739
:101A1C00C7FB386108E0FFF7C3FB02463B69D31AEA
:101A2C00642B01D9032303E1754B1B6803F480730A
:101A3C00002BF0D07B68DB68012B06D16F4B1B6A47
:101A4C006E4A43F0010313622DE07B68DB68002BC8
:101A5C000CD16A4B1B6A694A23F001031362674B72
:101A6C001B6A664A23F0040313621CE07B68DB6884
:101A7C00052B0CD1614B1B6A604A43F004031362C3
:101A8C005E4B1B6A5D4A43F0010313620BE05B4B38
:101A9C001B6A5A4A23F001031362584B1B6A574ABC
:101AAC0023F0040313627B68DB68002B15D0FFF76F
:101ABC0077FB38610AE0FFF773FB02463B69D31AE8
:101ACC0041F28832934201D90323B1E04B4B1B6A9C
:101ADC0003F00203002BEED014E0FFF761FB38613A
:101AEC000AE0FFF75DFB02463B69D31A41F28832EC
:101AFC00934201D903239BE0404B1B6A03F0020382
:101B0C00002BEED1FB7D012B05D13C4BDB693B4A15
:101B1C0023F08053D3617B68DB69002B00F0878056
:101B2C00364B5B6803F00C03082B61D07B68DB69D8
:101B3C00022B46D1334B00221A60FFF731FB386180
:101B4C0008E0FFF72DFB02463B69D31A022B01D9A3
:101B5C0003236DE0294B1B6803F00073002BF0D1BD
:101B6C007B681B6AB3F5803F08D1244B5B6823F478
:101B7C0000327B689B68214913434B601F4B5B68A9
:101B8C0023F474127B68196A7B685B6A0B431B49EC
:101B9C0013434B601B4B01221A60FFF701FB3861AA
:101BAC0008E0FFF7FDFA02463B69D31A022B01D974
:101BBC0003233DE0114B1B6803F00073002BF0D0A6
:101BCC0035E0104B00221A60FFF7EAFA386108E0A2
:101BDC00FFF7E6FA02463B69D31A022B01D903231D
:101BEC0026E0064B1B6803F00073002BF0D11EE0BF
:101BFC007B68DB69012B07D1012319E0001002403F
:101C0C0000700040600042420B4B5B68FB60FB685D
:101C1C0003F480327B681B6A9A4206D1FB6803F49A
:101C2C0070127B685B6A9A4201D0012300E00023AA
:101C3C0018461837BD4680BD0010024080B584B0F0
:101C4C0000AF786039607B68002B01D10123D0E0B4
:101C5C006A4B1B6803F007033A689A4210D9674B2A
:101C6C001B6823F0070265493B6813430B60634B09
:101C7C001B6803F007033A689A4201D00123B8E0CD
:101C8C007B681B6803F00203002B20D07B681B6869
:101C9C0003F00403002B05D0594B5B68584A43F4FE
:101CAC00E06353607B681B6803F00803002B05D0CE
:101CBC00534B5B68524A43F460535360504B5B6820
:101CCC0023F0F0027B689B684D4913434B607B68A3
:101CDC001B6803F00103002B40D07B685B68012B71
:101CEC0007D1474B1B6803F40033002B15D101239C
:101CFC007FE07B685B68022B07D1414B1B6803F0CC
:101D0C000073002B09D1012373E03D4B1B6803F0DA
:101D1C000203002B01D101236BE0394B5B6823F0EC
:101D2C0003027B685B68364913434B60FFF738FA54
:101D3C00F8600AE0FFF734FA0246FB68D31A41F266
:101D4C008832934201D9032353E02D4B5B6803F097
:101D5C000C027B685B689B009A42EBD1274B1B689B
:101D6C0003F007033A689A4210D2244B1B6823F005
:101D7C00070222493B6813430B60204B1B6803F09E
:101D8C0007033A689A4201D0012332E07B681B6852
:101D9C0003F00403002B08D0194B5B6823F4E062BA
:101DAC007B68DB68164913434B607B681B6803F048
:101DBC000803002B09D0124B5B6823F460527B683C
:101DCC001B69DB000E4913434B6000F021F80246FF
:101DDC000B4B5B681B0903F00F030A49CB5C22FA1F
:101DEC0003F3094A1360094B1B681846FFF796F971
:101DFC00002318461037BD4680BD00BF00200240AE
:101E0C00001002406C2700084C00002050000020FD
:101E1C0080B487B000AF0023FB600023BB600023BD
:101E2C007B6100237B6000233B611E4B5B68FB6086
:101E3C00FB6803F00C03042B02D0082B03D027E023
:101E4C00194B3B6127E0FB689B0C03F00F03174A0F
:101E5C00D35C7B60FB6803F48033002B10D0114BF8
:101E6C005B685B0C03F00103114AD35CBB607B68BD
:101E7C000D4A03FB02F2BB68B2FBF3F37B6104E097
:101E8C007B680C4A02FB03F37B617B693B6102E0DC
:101E9C00054B3B6100BF3B6918461C37BD4680BCF7
:101EAC00704700BF0010024000127A007C27000827
:101EBC008C27000800093D0080B485B000AF786025
:101ECC000A4B1B680A4AA2FB03235B0A7A6802FBD3
:101EDC0003F3FB6000BFFB685A1EFA60002BF9D1BC
:101EEC0000BF00BF1437BD4680BC70474C000020BB
:101EFC00D34D621080B582B000AF78607B68002B48
:101F0C0001D1012341E07B6893F83D30DBB2002B1B
:101F1C0006D17B68002283F83C207868FFF766F8CE
:101F2C007B68022283F83D207B681A687B68043347
:101F3C001946104600F074FA7B68012283F846209B
:101F4C007B68012283F83E207B68012283F83F20C6
:101F5C007B68012283F840207B68012283F84120B2
:101F6C007B68012283F842207B68012283F843209E
:101F7C007B68012283F844207B68012283F845208A
:101F8C007B68012283F83D20002318460837BD46A4
:101F9C0080BD000080B485B000AF78607B6893F89A
:101FAC003D30DBB2012B01D001233AE07B680222E9
:101FBC0083F83D207B681B68DA687B681B6842F0FD
:101FCC000102DA607B681B68184A93420ED07B686A
:101FDC001B68B3F1804F09D07B681B68144A93428D
:101FEC0004D07B681B68134A934211D17B681B6831
:101FFC009B6803F00703FB60FB68062B10D07B6823
:10200C001B681A687B681B6842F001021A6007E0C3
:10201C007B681B681A687B681B6842F001021A60B7
:10202C00002318461437BD4680BC7047002C014075
:10203C00000400400008004080B582B000AF78601A
:10204C007B681B681B6903F00203022B22D17B689F
:10205C001B68DB6803F00203022B1BD17B681B6837
:10206C006FF002021A617B6801221A777B681B6889
:10207C009B6903F00303002B03D0786800F0B4F9DC
:10208C0005E0786800F0A7F9786800F0B6F97B688D
:10209C0000221A777B681B681B6903F00403042B6E
:1020AC0022D17B681B68DB6803F00403042B1BD173
:1020BC007B681B686FF004021A617B6802221A7736
:1020CC007B681B689B6903F44073002B03D0786812
:1020DC0000F08AF905E0786800F07DF9786800F086
:1020EC008CF97B6800221A777B681B681B6903F0EC
:1020FC000803082B22D17B681B68DB6803F00803FC
:10210C00082B1BD17B681B686FF008021A617B6877
:10211C0004221A777B681B68DB6903F00303002B2E
:10212C0003D0786800F060F905E0786800F053F9A6
:10213C00786800F062F97B6800221A777B681B686C
:10214C001B6903F01003102B22D17B681B68DB6822
:10215C0003F01003102B1BD17B681B686FF010026F
:10216C001A617B6808221A777B681B68DB6903F4A9
:10217C004073002B03D0786800F036F905E07868DE
:10218C0000F029F9786800F038F97B6800221A779A
:10219C007B681B681B6903F00103012B0ED17B6864
:1021AC001B68DB6803F00103012B07D17B681B68FC
:1021BC006FF001021A617868FEF79AFE7B681B6863
:1021CC001B6903F08003802B0ED17B681B68DB68D6
:1021DC0003F08003802B07D17B681B686FF08002B3
:1021EC001A61786800F07BFA7B681B681B6903F046
:1021FC004003402B0ED17B681B68DB6803F0400367
:10220C00402B07D17B681B686FF040021A6178681D
:10221C0000F0FCF87B681B681B6903F02003202B83
:10222C000ED17B681B68DB6803F02003202B07D1E1
:10223C007B681B686FF020021A61786800F046FA20
:10224C0000BF0837BD4680BD80B584B000AF786054
:10225C0039600023FB737B6893F83C30012B01D170
:10226C000223B4E07B68012283F83C207B680222C5
:10227C0083F83D207B681B689B68BB60BB6823F0C0
:10228C007703BB60BB6823F47F43BB607B681B6830
:10229C00BA689A603B681B68B3F5005F3ED0B3F533
:1022AC00005F00F28780B3F5805F00F08680B3F5A5
:1022BC00805F7FD8702B1AD0702B7BD8602B50D0BE
:1022CC00602B77D8502B3CD0502B73D8402B58D048
:1022DC00402B6FD8302B64D0302B6BD8202B60D098
:1022EC00202B67D8002B5CD0102B5AD062E07B6877
:1022FC0018683B6899683B685A683B68DB6800F073
:10230C0068F97B681B689B68BB60BB6843F077030C
:10231C00BB607B681B68BA689A604FE07B68186882
:10232C003B6899683B685A683B68DB6800F051F978
:10233C007B681B689A687B681B6842F480429A60D1
:10234C003CE07B6818683B6859683B68DB681A4658
:10235C0000F0C8F87B681B685021184600F01FF984
:10236C002CE07B6818683B6859683B68DB681A4648
:10237C0000F0E6F87B681B686021184600F00FF946
:10238C001CE07B6818683B6859683B68DB681A4638
:10239C0000F0A8F87B681B684021184600F0FFF895
:1023AC000CE07B681A683B681B681946104600F005
:1023BC00F6F803E00123FB7300E000BF7B68012209
:1023CC0083F83D207B68002283F83C20FB7B184679
:1023DC001037BD4680BD80B483B000AF786000BFBD
:1023EC000C37BD4680BC704780B483B000AF7860BA
:1023FC0000BF0C37BD4680BC704780B483B000AFC3
:10240C00786000BF0C37BD4680BC704780B483B089
:10241C0000AF786000BF0C37BD4680BC7047000031
:10242C0080B485B000AF786039607B681B68FB6056
:10243C007B68294A93420BD07B68B3F1804F07D05D
:10244C007B68264A934203D07B68254A934208D185
:10245C00FB6823F07003FB603B685B68FA6813430E
:10246C00FB607B681C4A93420BD07B68B3F1804FB6
:10247C0007D07B68194A934203D07B68184A934271
:10248C0008D1FB6823F44073FB603B68DB68FA6897
:10249C001343FB60FB6823F080023B685B691343CA
:1024AC00FB607B68FA681A603B689A687B68DA6242
:1024BC003B681A687B689A627B68074A934203D12F
:1024CC003B681A697B681A637B6801225A6100BFFA
:1024DC001437BD4680BC7047002C014000040040FE
:1024EC000008004080B487B000AFF860B9607A6033
:1024FC00FB681B6A7B61FB681B6A23F00102FB68AB
:10250C001A62FB689B693B613B6923F0F0033B61FA
:10251C007B681B013A6913433B617B6923F00A0317
:10252C007B617A69BB6813437B61FB683A699A618A
:10253C00FB687A691A6200BF1C37BD4680BC7047C5
:10254C0080B487B000AFF860B9607A60FB681B6A32
:10255C007B61FB681B6A23F01002FB681A62FB6844
:10256C009B693B613B6923F470433B617B681B03B4
:10257C003A6913433B617B6923F0A0037B61BB6821
:10258C001B017A6913437B61FB683A699A61FB68AA
:10259C007A691A6200BF1C37BD4680BC704780B494
:1025AC0085B000AF786039607B689B68FB60FB6826
:1025BC0023F07003FB603A68FB68134343F0070396
:1025CC00FB607B68FA689A6000BF1437BD4680BC1C
:1025DC00704780B487B000AFF860B9607A603B6038
:1025EC00FB689B687B617B6923F47F437B613B6861
:1025FC001A027B681A43BB6813437A6913437B61E5
:10260C00FB687A699A6000BF1C37BD4680BC704776
:10261C0080B485B000AF786039607B6893F83C304B
:10262C00012B01D1022346E07B68012283F83C2078
:10263C007B68022283F83D207B681B685B68FB602B
:10264C007B681B689B68BB60FB6823F07003FB60B6
:10265C003B681B68FA681343FB607B681B68FA686D
:10266C005A607B681B68164A93420ED07B681B68C5
:10267C00B3F1804F09D07B681B68124A934204D097
:10268C007B681B68104A93420CD1BB6823F0800313
:10269C00BB603B685B68BA681343BB607B681B68B4
:1026AC00BA689A607B68012283F83D207B6800221F
:1026BC0083F83C20002318461437BD4680BC704775
:1026CC00002C0140000400400008004080B483B09E
:1026DC0000AF786000BF0C37BD4680BC704780B43B
:1026EC0083B000AF786000BF0C37BD4680BC70472C
:1026FC0003460244934200D1704703F8011BF9E7EB
:10270C0070B500260C4D0D4C641BA410A64209D1CB
:10271C0000F01AF800260A4D0A4C641BA410A642BD
:10272C0005D170BD55F8043B98470136EEE755F8D6
:10273C00043B98470136F2E79027000890270008E1
:10274C009027000894270008F8B500BFF8BC08BC17
:10275C009E467047F8B500BFF8BC08BC9E46704753
:10276C000000000000000000010203040607080935
:10277C0002030405060708090A0B0C0D0E0F1010B6
:04278C000102000046
:04279000310100080B
:042794000D0100082B
:10279800010000000200000001000000010000002C
:1027A800010000000100000001000000010000001D
:1027B800010000000100000001000000010000000D
:1027C800010000000100000001000000F401000009
:1027D8000500000027000000320000000024F4007B
:0827E8001000000001000000D8
:04000005080010B12E
:00000001FF
