:020000040800F2
:100000000050002009110008991000089F100008F6
:10001000A5100008AB100008B11000080000000097
:10002000000000000000000000000000B710000801
:10003000C310000800000000CF100008DB1000080B
:100040005111000851110008511100085111000808
:1000500051110008511100085111000851110008F8
:1000600051110008511100085111000851110008E8
:1000700051110008511100085111000851110008D8
:1000800051110008511100085111000851110008C8
:1000900051110008511100085111000851110008B8
:1000A00051110008511100085111000851110008A8
:1000B000E910000851110008511100085111000801
:1000C0005111000851110008511100085111000888
:1000D0005111000851110008511100085111000878
:1000E00051110008511100085111000800000000D2
:1000F0000000000000000000000000000000000000
:0C01000000000000000000005FF808F1A3
:10010C0010B5054C237833B9044B13B10448AFF345
:10011C0000800123237010BD580000200000000057
:10012C00DC27000808B5034B1BB103490348AFF3A8
:10013C00008008BD000000005C000020DC270008E7
:10014C0080B483B000AF7860094A7B6852F82330E2
:10015C00012B06D1064A7B68002142F823100123AB
:10016C0000E0002318460C37BD4680BC704700BF2A
:10017C007400002080B483B000AF7860044A7B68C0
:10018C00012142F8231000BF0C37BD4680BC7047DC
:10019C007400002080B582B000AF00237B6089E042
:1001AC00494A7B6852F8232048497B6841F8232050
:1001BC00474A7B6852F8232043497B6841F8232047
:1001CC007B68002B0FD1434A7B6852F823309BB2DB
:1001DC001946414801F0ACFA034619463C4A7B6883
:1001EC0042F8231021E07B68012B0FD1394A7B6840
:1001FC0052F823309BB21946384801F099FA03465D
:10020C001946334A7B6842F823100EE0314A7B686A
:10021C0052F823309BB21946304801F089FA034654
:10022C0019462B4A7B6842F82310274A7B6852F800
:10023C00232027497B6851F823309A4237D1224A30
:10024C007B6852F8232021497B6851F823309A426D
:10025C002DD11E4A7B6852F8232021497B6851F826
:10026C0023309A4215D0194A7B6852F823201C4936
:10027C007B6841F823201A4A7B6852F82330002B04
:10028C0015D1184B4FF4FA721A607868FFF772FFA9
:10029C000DE0144B1B68013B124A1360114B1B6899
:1002AC00002B04D10E4A7B68012142F823107B6895
:1002BC0001337B607B68022B7FF772AF00BF00BFFE
:1002CC000837BD4680BD00BF180000202400002068
:1002DC000C00002000000020000C01400010014028
:1002EC00300000203C00002080B582B000AF0346F7
:1002FC00FB71FB79032B4BD801A252F823F000BF02
:10030C001D0300083D0300087D0300085D03000881
:10031C0000221021214801F022FA002202211F485C
:10032C0001F01DFA002201211C4801F018FA30E0FE
:10033C0000221021194801F012FA0022022117485C
:10034C0001F00DFA01220121144801F008FA20E015
:10035C0000221021114801F002FA012202210F485B
:10036C0001F0FDF9002201210C4801F0F8F910E030
:10037C0001221021094801F0F2F90022022107485C
:10038C0001F0EDF900220121044801F0E8F900E048
:10039C0000BF00BF0837BD4680BD00BF000801404C
:1003AC0080B582B000AF0346FB71FB79032B4BD8B1
:1003BC0001A252F823F000BFD5030008F503000892
:1003CC00350400081504000800228021214801F0A2
:1003DC00C6F9002240211F4801F0C1F9002220215A
:1003EC001C4801F0BCF930E000228021194801F0D2
:1003FC00B6F900224021174801F0B1F90122202161
:10040C00144801F0ACF920E000228021114801F0E1
:10041C00A6F9012240210F4801F0A1F90022202168
:10042C000C4801F09CF910E001228021094801F0F0
:10043C0096F900224021074801F091F90022202171
:10044C00044801F08CF900E000BF00BF0837BD463E
:10045C0080BD00BF0008014080B582B000AF0346EC
:10046C00FB71FB79032B0ED0032B1EDC012B13D05D
:10047C00022B1AD110210F4801F089F980210D4867
:10048C0001F085F912E002210A4801F080F94021BF
:10049C00084801F07CF909E00121064801F077F9E0
:1004AC002021044801F073F900E000BF00BF0837B9
:1004BC00BD4680BD0008014080B582B000AF7860B9
:1004CC007B68092B00F2A88101A252F823F000BF2F
:1004DC000505000855050008A5050008F5050008E8
:1004EC004506000895060008E506000835070008D3
:1004FC0085070008D507000800224FF48071C94811
:10050C0001F02DF900224FF40071C64801F027F9D3
:10051C0000224FF48061C34801F021F9002204212C
:10052C00C04801F01CF900220821BE4801F017F95F
:10053C0000224FF48061BC4801F011F90122202106
:10054C00B94801F00CF968E101224FF48071B5480B
:10055C0001F005F900224FF40071B24801F0FFF8E8
:10056C0000224FF48061AF4801F0F9F80122042118
:10057C00AC4801F0F4F801220821AA4801F0EFF888
:10058C0001224FF48061A84801F0E9F801222021F2
:10059C00A54801F0E4F840E100224FF48071A14835
:1005AC0001F0DDF800224FF400719E4801F0D7F8FD
:1005BC0001224FF480619B4801F0D1F80022042104
:1005CC00984801F0CCF800220821964801F0C7F8B1
:1005DC0001224FF48061944801F0C1F800222021DF
:1005EC00914801F0BCF818E100224FF480718D485D
:1005FC0001F0B5F800224FF400718A4801F0AFF811
:10060C0000224FF48061874801F0A9F800220421F0
:10061C00844801F0A4F801220821824801F09FF8D7
:10062C0001224FF48061804801F099F800222021CA
:10063C007D4801F094F8F0E001224FF48071794884
:10064C0001F08DF800224FF40071764801F087F824
:10065C0000224FF48061734801F081F801220421DB
:10066C00704801F07CF8012208216E4801F077F8FF
:10067C0000224FF480616C4801F071F800222021B7
:10068C00694801F06CF8C8E000224FF480716548AD
:10069C0001F065F801224FF40071624801F05FF837
:1006AC0000224FF480615F4801F059F800220421C8
:1006BC005C4801F054F8012208215A4801F04FF827
:1006CC0000224FF48061584801F049F800222021A3
:1006DC00554801F044F8A0E000224FF480715148D5
:1006EC0001F03DF801224FF400714E4801F037F84B
:1006FC0000224FF480614B4801F031F800220421B4
:10070C00484801F02CF800220821464801F027F84F
:10071C0000224FF48061444801F021F8002220218E
:10072C00414801F01CF878E000224FF480713D48FC
:10073C0001F015F800224FF400713A4801F00FF85F
:10074C0000224FF48061374801F009F8012204219E
:10075C00344801F004F801220821324800F0FFFF70
:10076C0001224FF48061304800F0F9FF0122202172
:10077C002D4800F0F4FF50E000224FF4807129481E
:10078C0000F0EDFF00224FF40071264800F0E7FF67
:10079C0000224FF48061234800F0E1FF0022042185
:1007AC00204800F0DCFF002208211E4800F0D7FF93
:1007BC0000224FF480611C4800F0D1FF0022202160
:1007CC00194800F0CCFF28E000224FF48071154846
:1007DC0000F0C5FF00224FF40071124800F0BFFF7B
:1007EC0000224FF480610F4800F0B9FF0022042171
:1007FC000C4800F0B4FF012208210A4800F0AFFFBA
:10080C0000224FF48061084800F0A9FF002220214B
:10081C00054800F0A4FF00E000BF00BF0837BD464C
:10082C0080BD00BF00080140000C014080B500AF46
:10083C00954B1B78012B40F02481944B1B78042B97
:10084C0000F21F8101A252F823F000BF6D080008CE
:10085C007D080008FB08000881090008FD09000854
:10086C008A4B01221A706421002000F089FB08E1F8
:10087C000020FFF765FC0346012B0DD1824B0222B1
:10088C001A700020FFF730FD0020FFF789FD1921B9
:10089C00032000F075FBF4E00120FFF725FD02209A
:1008AC00FFF77EFD7A4B1B68013B1846FFF704FEF1
:1008BC00784B1B68012B40F0DD80754B1B68013BAE
:1008CC00734A1360744B1B68013B734A1360724B81
:1008DC001B68002B06D1714B1B686F4A13606B4B66
:1008EC0002221A706421002000F04AFBC2E00020B2
:1008FC00FFF726FC0346012B0DD1634B02221A7025
:10090C000020FFF7F1FC0020FFF74AFD192103201E
:10091C0000F036FBB5E00120FFF7E6FC0320FFF703
:10092C003FFD5B4B1B68013B1846FFF7C5FD594B60
:10093C001B68012B40F0A080554B1B68013B544AAF
:10094C001360554B1B68013B534A1360524B1B6899
:10095C00002B0AD1524B1B684F4A1360514B1B683A
:10096C004B4A1360494B03221A706421002000F09B
:10097C0007FB81E00020FFF7E3FB0346012B0DD1C1
:10098C00414B02221A700020FFF7AEFC0020FFF74B
:10099C0007FD1921032000F0F3FA72E00220FFF7A3
:1009AC00A3FC0120FFF7FCFC394B1B68013B1846EC
:1009BC00FFF782FD374B1B68012B5FD1344B1B6853
:1009CC00013B334A1360344B1B68013B324A1360C2
:1009DC002F4B1B68002B06D1304B1B682C4A136025
:1009EC002A4B04221A706421002000F0C9FA45E059
:1009FC000020FFF7A5FB0346012B0DD1224B022251
:100A0C001A700020FFF770FC0020FFF7C9FC1921B9
:100A1C00032000F0B5FA34E00320FFF765FC012059
:100A2C00FFF7BEFC1A4B1B68013B1846FFF744FD51
:100A3C00184B1B68012B23D1154B1B68013B144A27
:100A4C001360154B1B68013B134A1360104B1B685A
:100A5C00002B0AD1134B1B680F4A1360104B1B68F9
:100A6C000B4A1360094B01221A706421002000F01C
:100A7C0087FA05E000BF04E000BF02E000BF00E021
:100A8C0000BF00BF80BD00BF80000020810000209F
:100A9C0084000020FC00002088000020480000207A
:100AAC00400000204400002080B500AF744B1B7840
:100ABC00042B00F09780042B00F3D980022B02D07A
:100ACC00032B48D0D3E06F4BDB68012B0CD10120FA
:100ADC00FFF7C2FC6C4B1B68013B1846FFF7ECFCA4
:100AEC001921032000F04CFA0120FFF729FB0346E3
:100AFC00012B10D1644B1B680133634A1360634BA9
:100B0C001B680133614A13605F4B1B68622B02DD6B
:100B1C005D4B01221A600220FFF712FB0346012BEA
:100B2C0004D1574B01221A7000F0B4F80020FFF7E3
:100B3C0007FB0346012B40F09C801921032000F099
:100B4C001FFA4F4B03221A700020FFF7CDFB002039
:100B5C00FFF726FC8DE04B4BDB68012B0CD10320FF
:100B6C00FFF77AFC4A4B1B68013B1846FFF7A4FCC5
:100B7C001921032000F004FA0120FFF7E1FA0346E3
:100B8C00012B10D1424B1B680133414A13603E4B81
:100B9C001B6801333C4A13603D4B1B68622B02DD22
:100BAC003B4B01221A600220FFF7CAFA0346012BC5
:100BBC0004D1334B01221A7000F06CF80020FFF7BF
:100BCC00BFFA0346012B56D12D4B04221A70192162
:100BDC00032000F0D5F90020FFF786FB0020FFF77B
:100BEC00DFFB48E0274BDB68012B0CD10220FFF721
:100BFC0033FC264B1B68013B1846FFF75DFC1921A3
:100C0C00032000F0BDF90120FFF79AFA0346012BEF
:100C1C0010D11D4B1B6801331B4A13601B4B1B6807
:100C2C0001331A4A1360194B1B68622B02DD174BF8
:100C3C0001221A600220FFF783FA0346012B04D12C
:100C4C000F4B01221A7000F025F80020FFF778FAFC
:100C5C000346012B11D10A4B01221A7000F01AF82D
:100C6C000020FFF741FB0020FFF79AFB05E000BFD7
:100C7C0004E000BF02E000BF00E000BF00BF80BD89
:100C8C0080000020FC0000204000002044000020D8
:100C9C004800002080B400AF0B4B01221A700B4BA4
:100CAC0000221A700A4B00221A700A4B00221A708A
:100CBC00094B1B68094A1360094B1B68094A1360EE
:100CCC0000BFBD4680BC7047800000208100002022
:100CDC0082000020830000204000002084000020BF
:100CEC00440000208800002080B500AF00F02CFAF2
:100CFC0000F014F800F09AF800F04CF8064801F0F7
:100D0C008DF9FFF7C7FF0020FFF7EEFAFFF78EFD16
:100D1C00FFF7CAFEFAE700BF8C00002080B590B048
:100D2C0000AF07F1180328220021184601F024FD1A
:100D3C003B1D00221A605A609A60DA601A61022325
:100D4C00BB610123BB621023FB6200237B6307F1B1
:100D5C001803184600F034FD0346002B01D000F0B8
:100D6C0009F90F237B600023BB600023FB60002389
:100D7C003B6100237B613B1D0021184600F0A2FF64
:100D8C000346002B01D000F0F5F800BF4037BD46FC
:100D9C0080BD000080B586B000AF07F108030022CB
:100DAC001A605A609A60DA603B4600221A605A60F8
:100DBC001D4B4FF080421A601B4B41F63F725A603C
:100DCC00194B00229A60184B0A22DA60164B00224B
:100DDC001A61154B00229A61134801F0CFF80346B3
:100DEC00002B01D000F0C6F84FF48053BB6007F124
:100DFC00080319460C4801F06BFA0346002B01D08E
:100E0C0000F0B8F800233B6000237B603B4619469A
:100E1C00054801F041FC0346002B01D000F0AAF874
:100E2C0000BF1837BD4680BD8C00002080B588B04F
:100E3C0000AF07F1100300221A605A609A60DA6062
:100E4C003D4B9B693C4A43F0100393613A4B9B69C1
:100E5C0003F01003FB60FB68374B9B69364A43F089
:100E6C0004039361344B9B6903F00403BB60BB68C0
:100E7C00314B9B69304A43F0080393612E4B9B69BD
:100E8C0003F008037B607B68002273212B4800F081
:100E9C0066FC012240F20C71284800F060FC012233
:100EAC004FF48C61264800F05AFC03233B6100236D
:100EBC007B610123BB6107F110031946214800F047
:100ECC00B3FA40F27F733B6101237B610023BB616A
:100EDC000223FB6107F110031946184800F0A4FA2D
:100EEC0080233B6100237B610123BB6107F110036D
:100EFC001946124800F098FA01233B6100237B61EC
:100F0C000123BB6107F1100319460D4800F08CFA60
:100F1C004FF48C633B6101237B610023BB61022393
:100F2C00FB6107F110031946054800F07DFA00BF7C
:100F3C002037BD4680BD00BF0010024000080140B4
:100F4C00000C01400010014080B582B000AF786009
:100F5C00FFF720F9002000F02BF8012000F028F812
:100F6C00022000F025F8032000F022F800BF08371B
:100F7C00BD4680BD80B400AF72B600BFFEE7000076
:100F8C0080B483B000AF7860396007497B683A68F9
:100F9C0041F82320054A7B68002142F8231000BF4A
:100FAC000C37BD4680BC7047D4000020FC000020EC
:100FBC0080B483B000AF78600F4A7B6852F823305E
:100FCC00002B13DD0C4A7B6852F823305A1E0A4959
:100FDC007B6841F82320084A7B6852F82330002BA9
:100FEC0004DC064A7B68012142F8231000BF0C3751
:100FFC00BD4680BC704700BFD4000020FC00002020
:10100C0080B483B000AF0E4B9B690D4A43F00103D3
:10101C0093610B4B9B6903F001037B607B68084B6E
:10102C00DB69074A43F08053D361054BDB6903F05E
:10103C0080533B603B6800BF0C37BD4680BC70479B
:10104C000010024080B584B000AF78607B681B68EC
:10105C00B3F1804F13D10C4BDB690B4A43F0010306
:10106C00D361094BDB6903F00103FB60FB680022D1
:10107C0000211C2000F0A1F91C2000F0BAF900BFDF
:10108C001037BD4680BD00BF0010024080B400AFD9
:10109C00FEE780B400AFFEE780B400AFFEE780B49B
:1010AC0000AFFEE780B400AFFEE780B400AF00BF36
:1010BC00BD4680BC704780B400AF00BFBD4680BC4D
:1010CC00704780B400AF00BFBD4680BC704780B590
:1010DC0000AF00F07FF800BF80BD000080B500AF0E
:1010EC00024800F0EDFF00BF80BD00BF8C00002067
:1010FC0080B400AF00BFBD4680BC7047FFF7F8FF5F
:10110C000B480C490C4A002302E0D458C450043359
:10111C00C4188C42F9D3094A094C002301E013602E
:10112C000432A242FBD301F02FFBFFF7DDFD704729
:10113C000000002058000020202800085800002043
:10114C0028010020FEE7000080B500AF084B1B68AB
:10115C00074A43F010031360032000F023F90F201B
:10116C0000F008F8FFF74CFF0023184680BD00BFC5
:10117C000020024080B582B000AF7860124B1A6834
:10118C00124B1B7819464FF47A73B3FBF1F3B2FB95
:10119C00F3F3184600F03BF90346002B01D0012372
:1011AC000EE07B680F2B0AD8002279684FF0FF30D5
:1011BC0000F003F9064A7B681360002300E001236A
:1011CC0018460837BD4680BD4C0000205400002056
:1011DC005000002080B400AF054B1B781A46054B1D
:1011EC001B681344034A136000BFBD4680BC7047A4
:1011FC00540000202401002080B400AF024B1B6877
:10120C001846BD4680BC70472401002080B485B0D0
:10121C0000AF78607B6803F00703FB600C4BDB6866
:10122C00BB60BA684FF6FF031340BB60FB681A0241
:10123C00BB68134343F0BF6343F40033BB60044A01
:10124C00BB68D36000BF1437BD4680BC704700BF7D
:10125C0000ED00E080B400AF044BDB681B0A03F028
:10126C0007031846BD4680BC704700BF00ED00E088
:10127C0080B483B000AF0346FB7197F90730002BA5
:10128C000BDBFB7903F01F02064997F907305B096A
:10129C00012000FA02F241F8232000BF0C37BD46B2
:1012AC0080BC704700E100E080B483B000AF03461F
:1012BC003960FB7197F90730002B0ADB3B68DAB217
:1012CC000C4997F907301201D2B20B4483F8002372
:1012DC000AE03B68DAB20849FB7903F00F03043BE0
:1012EC001201D2B20B441A7600BF0C37BD4680BC3B
:1012FC00704700BF00E100E000ED00E080B489B071
:10130C0000AFF860B9607A60FB6803F00703FB611B
:10131C00FB69C3F10703042B28BF0423BB61FB69E2
:10132C000433062B02D9FB69033B00E000237B61ED
:10133C004FF0FF32BB6902FA03F3DA43BB681A4081
:10134C007B699A404FF0FF317B6901FA03F3D94373
:10135C007B680B40134318462437BD4680BC70474E
:10136C0080B582B000AF78607B68013BB3F1807FC1
:10137C0001D301230FE00A4A7B68013B53600F2124
:10138C004FF0FF30FFF790FF054B00229A60044BA3
:10139C0007221A60002318460837BD4680BD00BFDF
:1013AC0010E000E080B582B000AF78607868FFF79D
:1013BC002DFF00BF0837BD4680BD80B586B000AF9D
:1013CC000346B9607A60FB7300237B61FFF742FF31
:1013DC0078617A68B9687869FFF790FF024697F9E7
:1013EC000F3011461846FFF75FFF00BF1837BD4698
:1013FC0080BD80B582B000AF0346FB7197F9073012
:10140C001846FFF735FF00BF0837BD4680BD80B5D5
:10141C0082B000AF78607868FFF7A2FF03461846E9
:10142C000837BD4680BD000080B48BB000AF78603B
:10143C00396000237B6200233B6269E101227B6AF5
:10144C0002FA03F3FB613B681B68FA691340BB614A
:10145C00BA69FB699A4240F058813B685B689A4ACA
:10146C0093425ED0984A934275D8984A934258D08A
:10147C00964A93426FD8964A934252D0944A9342DA
:10148C0069D8944A93424CD0924A934263D8924A78
:10149C00934246D0904A93425DD8122B2AD8122BF5
:1014AC0059D801A252F823F02F150008091500088D
:1014BC001B1500085D15000863150008631500086E
:1014CC006315000863150008631500086315000810
:1014DC006315000863150008631500086315000800
:1014EC006315000863150008631500081115000842
:1014FC0025150008794A934213D02CE03B68DB6831
:10150C003B6229E03B68DB6804333B6224E03B68C8
:10151C00DB6808333B621FE03B68DB680C333B62E3
:10152C001AE03B689B68002B02D104233B6213E05A
:10153C003B689B68012B05D108233B627B68FA69E9
:10154C001A6109E008233B627B68FA695A6103E07F
:10155C0000233B6200E000BFBB69FF2B01D87B6816
:10156C0001E07B6804337B61BB69FF2B02D87B6A8B
:10157C009B0002E07B6A083B9B003B617B691A681D
:10158C000F213B6901FA03F3DB431A40396A3B69CB
:10159C0001FA03F31A437B691A603B685B6803F03A
:1015AC008053002B00F0B1804D4B9B694C4A43F0AB
:1015BC00010393614A4B9B6903F00103BB60BB6859
:1015CC00484A7B6A9B08023352F82330FB607B6AE3
:1015DC0003F003039B000F2202FA03F3DB43FA68C8
:1015EC001340FB607B68404A934213D07B683F4AB0
:1015FC0093420DD07B683E4A934207D07B683D4AAC
:10160C00934201D1032306E0042304E0022302E009
:10161C00012300E000237A6A02F003029200934057
:10162C00FA681343FB602F497B6A9B080233FA6804
:10163C0041F823203B685B6803F48013002B06D031
:10164C002D4B9A682C49BB6913438B6006E02A4BDF
:10165C009A68BB69DB43284913408B603B685B6825
:10166C0003F40013002B06D0234BDA682249BB6924
:10167C001343CB6006E0204BDA68BB69DB431E49A1
:10168C001340CB603B685B6803F40033002B06D03F
:10169C00194B5A681849BB6913434B6006E0164B4B
:1016AC005A68BB69DB43144913404B603B685B6869
:1016BC0003F48033002B21D00F4B1A680E49BB6901
:1016CC0013430B6021E000BF00003210000031100A
:1016DC000000221000002110000012100000111058
:1016EC00001002400000014000080140000C0140C5
:1016FC000010014000140140000401400B4B1A681B
:10170C00BB69DB43094913400B607B6A01337B6285
:10171C003B681A687B6A22FA03F3002B7FF48EAEC7
:10172C0000BF00BF2C37BD4680BC70470004014091
:10173C0080B485B000AF78600B467B807B689A687C
:10174C007B881340002B02D00123FB7301E00023A4
:10175C00FB73FB7B18461437BD4680BC704780B4C6
:10176C0083B000AF78600B467B8013467B707B7830
:10177C00002B03D07A887B681A6103E07B881A04FB
:10178C007B681A6100BF0C37BD4680BC704780B4C3
:10179C0085B000AF78600B467B807B68DB68FB60B4
:1017AC007A88FB6813401A04FB68D9437B880B408A
:1017BC001A437B681A6100BF1437BD4680BC704762
:1017CC0080B586B000AF78607B68002B01D1012317
:1017DC0072E27B681B6803F00103002B00F087802A
:1017EC00924B5B6803F00C03042B0CD08F4B5B68A3
:1017FC0003F00C03082B12D18C4B5B6803F4803381
:10180C00B3F5803F0BD1894B1B6803F40033002BDD
:10181C006CD07B685B68002B68D101234CE27B6841
:10182C005B68B3F5803F06D1804B1B687F4A43F45D
:10183C00803313602EE07B685B68002B0CD17B4BF4
:10184C001B687A4A23F480331360784B1B68774A01
:10185C0023F4802313601DE07B685B68B3F5A02F35
:10186C000CD1724B1B68714A43F4802313606F4B8D
:10187C001B686E4A43F4803313600BE06B4B1B68A0
:10188C006A4A23F480331360684B1B68674A23F45D
:10189C00802313607B685B68002B13D0FFF7ACFCD4
:1018AC00386108E0FFF7A8FC02463B69D31A642BA9
:1018BC0001D9032300E25D4B1B6803F40033002BBA
:1018CC00F0D014E0FFF798FC386108E0FFF794FCC7
:1018DC0002463B69D31A642B01D90323ECE1534B29
:1018EC001B6803F40033002BF0D100E000BF7B68D1
:1018FC001B6803F00203002B63D04C4B5B6803F0B6
:10190C000C03002B0BD0494B5B6803F00C03082B2A
:10191C001CD1464B5B6803F48033002B16D1434B30
:10192C001B6803F00203002B05D07B681B69012B9D
:10193C0001D00123C0E13D4B1B6823F0F8027B680A
:10194C005B69DB00394913430B603AE07B681B6928
:10195C00002B20D0364B01221A60FFF74DFC38616A
:10196C0008E0FFF749FC02463B69D31A022B01D968
:10197C000323A1E12D4B1B6803F00203002BF0D0D5
:10198C002A4B1B6823F0F8027B685B69DB00274954
:10199C0013430B6015E0264B00221A60FFF72CFC5A
:1019AC00386108E0FFF728FC02463B69D31A022B8A
:1019BC0001D9032380E11D4B1B6803F00203002BAC
:1019CC00F0D17B681B6803F00803002B3AD07B68CE
:1019DC009B69002B19D0174B01221A60FFF70CFCE6
:1019EC00386108E0FFF708FC02463B69D31A022B6A
:1019FC0001D9032360E10D4B5B6A03F00203002B5A
:101A0C00F0D0012000F09CFA1CE00A4B00221A6076
:101A1C00FFF7F2FB38610FE0FFF7EEFB02463B6984
:101A2C00D31A022B08D9032346E100BF0010024051
:101A3C000000424280044242924B5B6A03F0020374
:101A4C00002BE9D17B681B6803F00403002B00F02A
:101A5C00A6800023FB758B4BDB6903F08053002BB6
:101A6C000DD1884BDB69874A43F08053D361854B9A
:101A7C00DB6903F08053BB60BB680123FB75824BB1
:101A8C001B6803F48073002B18D17F4B1B687E4AB4
:101A9C0043F480731360FFF7AFFB386108E0FFF786
:101AAC00ABFB02463B69D31A642B01D9032303E138
:101ABC00754B1B6803F48073002BF0D07B68DB68DC
:101ACC00012B06D16F4B1B6A6E4A43F00103136264
:101ADC002DE07B68DB68002B0CD16A4B1B6A694AD2
:101AEC0023F001031362674B1B6A664A23F004035D
:101AFC0013621CE07B68DB68052B0CD1614B1B6A05
:101B0C00604A43F0040313625E4B1B6A5D4A43F068
:101B1C00010313620BE05B4B1B6A5A4A23F001036F
:101B2C001362584B1B6A574A23F0040313627B68F9
:101B3C00DB68002B15D0FFF75FFB38610AE0FFF77D
:101B4C005BFB02463B69D31A41F28832934201D9BE
:101B5C000323B1E04B4B1B6A03F00203002BEED0C6
:101B6C0014E0FFF749FB38610AE0FFF745FB02463A
:101B7C003B69D31A41F28832934201D903239BE08B
:101B8C00404B1B6A03F00203002BEED1FB7D012BB3
:101B9C0005D13C4BDB693B4A23F08053D3617B6816
:101BAC00DB69002B00F08780364B5B6803F00C037D
:101BBC00082B61D07B68DB69022B46D1334B0022AA
:101BCC001A60FFF719FB386108E0FFF715FB0246B6
:101BDC003B69D31A022B01D903236DE0294B1B68F7
:101BEC0003F00073002BF0D17B681B6AB3F5803FC8
:101BFC0008D1244B5B6823F400327B689B68214935
:101C0C0013434B601F4B5B6823F474127B68196A97
:101C1C007B685B6A0B431B4913434B601B4B0122D4
:101C2C001A60FFF7E9FA386108E0FFF7E5FA0246B7
:101C3C003B69D31A022B01D903233DE0114B1B68DE
:101C4C0003F00073002BF0D035E0104B00221A602B
:101C5C00FFF7D2FA386108E0FFF7CEFA02463B698B
:101C6C00D31A022B01D9032326E0064B1B6803F081
:101C7C000073002BF0D11EE07B68DB69012B07D1D0
:101C8C00012319E000100240007000406000424245
:101C9C000B4B5B68FB60FB6803F480327B681B6A50
:101CAC009A4206D1FB6803F470127B685B6A9A4215
:101CBC0001D0012300E0002318461837BD4680BD33
:101CCC000010024080B584B000AF786039607B684A
:101CDC00002B01D10123D0E06A4B1B6803F00703F2
:101CEC003A689A4210D9674B1B6823F00702654982
:101CFC003B6813430B60634B1B6803F007033A68A4
:101D0C009A4201D00123B8E07B681B6803F0020300
:101D1C00002B20D07B681B6803F00403002B05D03C
:101D2C00594B5B68584A43F4E06353607B681B680B
:101D3C0003F00803002B05D0534B5B68524A43F465
:101D4C0060535360504B5B6823F0F0027B689B68D8
:101D5C004D4913434B607B681B6803F00103002B58
:101D6C0040D07B685B68012B07D1474B1B6803F4A1
:101D7C000033002B15D101237FE07B685B68022BBD
:101D8C0007D1414B1B6803F00073002B09D10123D1
:101D9C0073E03D4B1B6803F00203002B01D10123C0
:101DAC006BE0394B5B6823F003027B685B68364958
:101DBC0013434B60FFF720FAF8600AE0FFF71CFAB8
:101DCC000246FB68D31A41F28832934201D90323AD
:101DDC0053E02D4B5B6803F00C027B685B689B0047
:101DEC009A42EBD1274B1B6803F007033A689A42DF
:101DFC0010D2244B1B6823F0070222493B68134383
:101E0C000B60204B1B6803F007033A689A4201D021
:101E1C00012332E07B681B6803F00403002B08D01D
:101E2C00194B5B6823F4E0627B68DB68164913434B
:101E3C004B607B681B6803F00803002B09D0124B26
:101E4C005B6823F460527B681B69DB000E4913430B
:101E5C004B6000F021F802460B4B5B681B0903F04A
:101E6C000F030A49CB5C22FA03F3094A1360094BAE
:101E7C001B681846FFF77EF9002318461037BD463D
:101E8C0080BD00BF0020024000100240F427000873
:101E9C004C0000205000002080B487B000AF00231D
:101EAC00FB600023BB6000237B6100237B6000236D
:101EBC003B611E4B5B68FB60FB6803F00C03042B5F
:101ECC0002D0082B03D027E0194B3B6127E0FB68BD
:101EDC009B0C03F00F03174AD35C7B60FB6803F485
:101EEC008033002B10D0114B5B685B0C03F00103AB
:101EFC00114AD35CBB607B680D4A03FB02F2BB68E2
:101F0C00B2FBF3F37B6104E07B680C4A02FB03F346
:101F1C007B617B693B6102E0054B3B6100BF3B6928
:101F2C0018461C37BD4680BC704700BF00100240ED
:101F3C0000127A00042800081428000800093D004B
:101F4C0080B485B000AF78600A4B1B680A4AA2FBCC
:101F5C0003235B0A7A6802FB03F3FB6000BFFB6898
:101F6C005A1EFA60002BF9D100BF00BF1437BD46D2
:101F7C0080BC70474C000020D34D621080B582B0FD
:101F8C0000AF78607B68002B01D1012341E07B68B6
:101F9C0093F83D30DBB2002B06D17B68002283F82E
:101FAC003C207868FFF74EF87B68022283F83D20CE
:101FBC007B681A687B6804331946104600F074FA83
:101FCC007B68012283F846207B68012283F83E203F
:101FDC007B68012283F83F207B68012283F8402034
:101FEC007B68012283F841207B68012283F8422020
:101FFC007B68012283F843207B68012283F844200C
:10200C007B68012283F845207B68012283F83D2000
:10201C00002318460837BD4680BD000080B485B04B
:10202C0000AF78607B6893F83D30DBB2012B01D0B8
:10203C0001233AE07B68022283F83D207B681B6811
:10204C00DA687B681B6842F00102DA607B681B6807
:10205C00184A93420ED07B681B68B3F1804F09D0AD
:10206C007B681B68144A934204D07B681B68134A34
:10207C00934211D17B681B689B6803F00703FB60DC
:10208C00FB68062B10D07B681B681A687B681B6882
:10209C0042F001021A6007E07B681B681A687B68D3
:1020AC001B6842F001021A60002318461437BD4623
:1020BC0080BC7047002C0140000400400008004028
:1020CC0080B582B000AF78607B681B681B6903F039
:1020DC000203022B22D17B681B68DB6803F002032E
:1020EC00022B1BD17B681B686FF002021A617B68A4
:1020FC0001221A777B681B689B6903F00303002B92
:10210C0003D0786800F0B4F905E0786800F0A7F91E
:10211C00786800F0B6F97B6800221A777B681B6838
:10212C001B6903F00403042B22D17B681B68DB685A
:10213C0003F00403042B1BD17B681B686FF00402B3
:10214C001A617B6802221A777B681B689B6903F40F
:10215C004073002B03D0786800F08AF905E07868AA
:10216C0000F07DF9786800F08CF97B6800221A7712
:10217C007B681B681B6903F00803082B22D17B6862
:10218C001B68DB6803F00803082B1BD17B681B68FA
:10219C006FF008021A617B6804221A777B681B684F
:1021AC00DB6903F00303002B03D0786800F060F9BF
:1021BC0005E0786800F053F9786800F062F97B6804
:1021CC0000221A777B681B681B6903F01003102B25
:1021DC0022D17B681B68DB6803F01003102B1BD12A
:1021EC007B681B686FF010021A617B6808221A77F3
:1021FC007B681B68DB6903F44073002B03D07868A1
:10220C0000F036F905E0786800F029F9786800F0FC
:10221C0038F97B6800221A777B681B681B6903F00E
:10222C000103012B0ED17B681B68DB6803F00103F3
:10223C00012B07D17B681B686FF001021A6178686B
:10224C00FEF782FE7B681B681B6903F08003802B02
:10225C000ED17B681B68DB6803F08003802B07D1F1
:10226C007B681B686FF080021A61786800F07BFA5B
:10227C007B681B681B6903F04003402B0ED17B6805
:10228C001B68DB6803F04003402B07D17B681B689D
:10229C006FF040021A61786800F0FCF87B681B68EC
:1022AC001B6903F02003202B0ED17B681B68DB68B5
:1022BC0003F02003202B07D17B681B686FF02002F2
:1022CC001A61786800F046FA00BF0837BD4680BD39
:1022DC0080B584B000AF786039600023FB737B68F5
:1022EC0093F83C30012B01D10223B4E07B6801222E
:1022FC0083F83C207B68022283F83D207B681B68B6
:10230C009B68BB60BB6823F07703BB60BB6823F49E
:10231C007F43BB607B681B68BA689A603B681B682C
:10232C00B3F5005F3ED0B3F5005F00F28780B3F5E4
:10233C00805F00F08680B3F5805F7FD8702B1AD059
:10234C00702B7BD8602B50D0602B77D8502B3CD087
:10235C00502B73D8402B58D0402B6FD8302B64D0D7
:10236C00302B6BD8202B60D0202B67D8002B5CD067
:10237C00102B5AD062E07B6818683B6899683B6800
:10238C005A683B68DB6800F068F97B681B689B68DF
:10239C00BB60BB6843F07703BB607B681B68BA68A3
:1023AC009A604FE07B6818683B6899683B685A688C
:1023BC003B68DB6800F051F97B681B689A687B68A6
:1023CC001B6842F480429A603CE07B6818683B686A
:1023DC0059683B68DB681A4600F0C8F87B681B68D4
:1023EC005021184600F01FF92CE07B6818683B68F8
:1023FC0059683B68DB681A4600F0E6F87B681B6896
:10240C006021184600F00FF91CE07B6818683B68E7
:10241C0059683B68DB681A4600F0A8F87B681B68B3
:10242C004021184600F0FFF80CE07B681A683B6806
:10243C001B681946104600F0F6F803E00123FB7305
:10244C0000E000BF7B68012283F83D207B680022FE
:10245C0083F83C20FB7B18461037BD4680BD80B40A
:10246C0083B000AF786000BF0C37BD4680BC7047AE
:10247C0080B483B000AF786000BF0C37BD4680BC21
:10248C00704780B483B000AF786000BF0C37BD4696
:10249C0080BC704780B483B000AF786000BF0C374D
:1024AC00BD4680BC7047000080B485B000AF78603A
:1024BC0039607B681B68FB607B68294A93420BD0B0
:1024CC007B68B3F1804F07D07B68264A934203D0D8
:1024DC007B68254A934208D1FB6823F07003FB60AC
:1024EC003B685B68FA681343FB607B681C4A934249
:1024FC000BD07B68B3F1804F07D07B68194A9342AD
:10250C0003D07B68184A934208D1FB6823F44073CC
:10251C00FB603B68DB68FA681343FB60FB6823F0E5
:10252C0080023B685B691343FB607B68FA681A6046
:10253C003B689A687B68DA623B681A687B689A62C7
:10254C007B68074A934203D13B681A697B681A631C
:10255C007B6801225A6100BF1437BD4680BC7047AE
:10256C00002C0140000400400008004080B487B0FB
:10257C0000AFF860B9607A60FB681B6A7B61FB682E
:10258C001B6A23F00102FB681A62FB689B693B61C2
:10259C003B6923F0F0033B617B681B013A691343F1
:1025AC003B617B6923F00A037B617A69BB68134347
:1025BC007B61FB683A699A61FB687A691A6200BFB1
:1025CC001C37BD4680BC704780B487B000AFF86044
:1025DC00B9607A60FB681B6A7B61FB681B6A23F03D
:1025EC001002FB681A62FB689B693B613B6923F430
:1025FC0070433B617B681B033A6913433B617B6906
:10260C0023F0A0037B61BB681B017A6913437B61D8
:10261C00FB683A699A61FB687A691A6200BF1C37D9
:10262C00BD4680BC704780B485B000AF786039601F
:10263C007B689B68FB60FB6823F07003FB603A6867
:10264C00FB68134343F00703FB607B68FA689A60EE
:10265C0000BF1437BD4680BC704780B487B000AF54
:10266C00F860B9607A603B60FB689B687B617B6952
:10267C0023F47F437B613B681A027B681A43BB6877
:10268C0013437A6913437B61FB687A699A6000BFD4
:10269C001C37BD4680BC704780B485B000AF7860F5
:1026AC0039607B6893F83C30012B01D1022346E062
:1026BC007B68012283F83C207B68022283F83D2052
:1026CC007B681B685B68FB607B681B689B68BB60F6
:1026DC00FB6823F07003FB603B681B68FA681343CC
:1026EC00FB607B681B68FA685A607B681B68164A3B
:1026FC0093420ED07B681B68B3F1804F09D07B6886
:10270C001B68124A934204D07B681B68104A9342A0
:10271C000CD1BB6823F08003BB603B685B68BA6874
:10272C001343BB607B681B68BA689A607B680122A4
:10273C0083F83D207B68002283F83C200023184658
:10274C001437BD4680BC7047002C0140000400408B
:10275C000008004080B483B000AF786000BF0C3735
:10276C00BD4680BC704780B483B000AF786000BFBA
:10277C000C37BD4680BC704703460244934200D1DF
:10278C00704703F8011BF9E770B500260C4D0D4C92
:10279C00641BA410A64209D100F01AF800260A4DB9
:1027AC000A4C641BA410A64205D170BD55F8043B1D
:1027BC0098470136EEE755F8043B98470136F2E7A7
:1027CC001828000818280008182800081C280008D9
:1027DC00F8B500BFF8BC08BC9E467047F8B500BF02
:0827EC00F8BC08BC9E467047D2
:1027F40000000000000000000102030406070809AD
:1028040002030405060708090A0B0C0D0E0F10102D
:0428140001020000BD
:042818003101000882
:04281C000D010008A2
:1028200001000000020000000100000001000000A3
:102830000100000001000000010000000100000094
:102840000100000001000000010000000100000084
:10285000010000000100000001000000F401000080
:102860000700000004000000030000000024F40042
:0828700010000000010000004F
:0400000508001109D5
:00000001FF
