:020000040800F2
:100000000050002011110008A1100008A7100008DE
:10001000AD100008B3100008B9100008000000007F
:10002000000000000000000000000000BF100008F9
:10003000CB10000800000000D7100008E3100008F3
:1000400059110008591100085911000859110008E8
:1000500059110008591100085911000859110008D8
:1000600059110008591100085911000859110008C8
:1000700059110008591100085911000859110008B8
:1000800059110008591100085911000859110008A8
:100090005911000859110008591100085911000898
:1000A0005911000859110008591100085911000888
:1000B000F1100008591100085911000859110008E1
:1000C0005911000859110008591100085911000868
:1000D0005911000859110008591100085911000858
:1000E00059110008591100085911000800000000BA
:1000F0000000000000000000000000000000000000
:0C01000000000000000000005FF808F1A3
:10010C0010B5054C237833B9044B13B10448AFF345
:10011C0000800123237010BD580000200000000057
:10012C00E427000808B5034B1BB103490348AFF3A0
:10013C00008008BD000000005C000020E4270008DF
:10014C0080B483B000AF7860094A7B6852F82330E2
:10015C00012B06D1064A7B68002142F823100123AB
:10016C0000E0002318460C37BD4680BC704700BF2A
:10017C007400002080B483B000AF7860044A7B68C0
:10018C00012142F8231000BF0C37BD4680BC7047DC
:10019C007400002080B582B000AF00237B6089E042
:1001AC00494A7B6852F8232048497B6841F8232050
:1001BC00474A7B6852F8232043497B6841F8232047
:1001CC007B68002B0FD1434A7B6852F823309BB2DB
:1001DC001946414801F0B0FA034619463C4A7B687F
:1001EC0042F8231021E07B68012B0FD1394A7B6840
:1001FC0052F823309BB21946374801F09DFA03465A
:10020C001946334A7B6842F823100EE0314A7B686A
:10021C0052F823309BB219462F4801F08DFA034651
:10022C0019462B4A7B6842F82310274A7B6852F800
:10023C00232027497B6851F823309A4237D1224A30
:10024C007B6852F8232021497B6851F823309A426D
:10025C002DD11E4A7B6852F8232020497B6851F827
:10026C0023309A4215D0194A7B6852F823201B4937
:10027C007B6841F82320194A7B6852F82330002B05
:10028C0015D1174B4FF4FA721A607868FFF772FFAA
:10029C000DE0134B1B68013B114A1360104B1B689C
:1002AC00002B04D10D4A7B68012142F823107B6896
:1002BC0001337B607B68022B7FF772AF00BF00BFFE
:1002CC000837BD4680BD00BF180000202400002068
:1002DC000C0000200000002000080140300000202D
:1002EC003C00002080B582B000AF0346FB71FB7967
:1002FC00032B4BD801A252F823F000BF19030008BE
:10030C003903000879030008590300080022102162
:10031C00214801F028FA002202211F4801F023FA9B
:10032C00002201211C4801F01EFA30E000221021AD
:10033C00194801F018FA00220221174801F013FAAB
:10034C0001220121144801F00EFA20E000221021B4
:10035C00114801F008FA012202210F4801F003FABA
:10036C00002201210C4801F0FEF910E001221021BD
:10037C00094801F0F8F900220221074801F0F3F9CD
:10038C0000220121044801F0EEF900E000BF00BF9B
:10039C000837BD4680BD00BF0008014080B582B063
:1003AC0000AF0346FB71FB79032B4BD801A252F82B
:1003BC0023F000BFD1030008F1030008310400084A
:1003CC001104000800220121214801F0CCF900227F
:1003DC0002211F4801F0C7F9002201211D4801F03C
:1003EC00C2F930E000220121194801F0BCF90022C9
:1003FC000221174801F0B7F901220121154801F03B
:10040C00B2F920E000220121114801F0ACF90122DF
:10041C0002210F4801F0A7F9002201210D4801F03B
:10042C00A2F910E001220121094801F09CF90022F7
:10043C000221074801F097F900220121054801F03B
:10044C0092F900E000BF00BF0837BD4680BD00BF79
:10045C0000100140000C014080B582B000AF034693
:10046C00FB71FB79032B0ED0032B1EDC012B13D05D
:10047C00022B1AD110210F4801F08DF901210E48E1
:10048C0001F089F912E002210A4801F084F90221F5
:10049C00094801F080F909E00121064801F07BF9D7
:1004AC000121064801F077F900E000BF00BF0837D2
:1004BC00BD4680BD0008014000100140000C014009
:1004CC0080B582B000AF78607B68092B00F2A88100
:1004DC0001A252F823F000BF0D0500085D050008CD
:1004EC00AD050008FD0500084D0600089D06000836
:1004FC00ED0600083D0700088D070008DD07000821
:10050C0000220821C94801F02EF900220421C74815
:10051C0001F029F900224FF48061C44801F023F95D
:10052C0000222021C24801F01EF900224FF4806104
:10053C00BF4801F018F900224FF48071BB4801F05C
:10054C0012F901224FF40071B84801F00CF968E17E
:10055C0001220821B54801F006F900220421B34814
:10056C0001F001F900224FF48061B04801F0FBF872
:10057C0001222021AE4801F0F6F801224FF48061EF
:10058C00AB4801F0F0F801224FF48071A74801F05C
:10059C00EAF801224FF40071A44801F0E4F840E1BC
:1005AC0000220821A14801F0DEF8002204219F4816
:1005BC0001F0D9F801224FF480619C4801F0D3F886
:1005CC00002220219A4801F0CEF800224FF48061DD
:1005DC00974801F0C8F801224FF48071934801F05C
:1005EC00C2F800224FF40071904801F0BCF818E1F9
:1005FC00002208218D4801F0B6F8002204218B4816
:10060C0001F0B1F800224FF48061884801F0ABF89A
:10061C0000222021864801F0A6F801224FF48061C7
:10062C00834801F0A0F801224FF480717F4801F05B
:10063C009AF800224FF400717C4801F094F8F0E035
:10064C0001220821794801F08EF800220421774814
:10065C0001F089F800224FF48061744801F083F8AE
:10066C0001222021724801F07EF801224FF48061B2
:10067C006F4801F078F800224FF480716B4801F05C
:10068C0072F800224FF40071684801F06CF8C8E071
:10069C0000220821654801F066F801220421634814
:1006AC0001F061F800224FF48061604801F05BF8C2
:1006BC00002220215E4801F056F801224FF480619F
:1006CC005B4801F050F800224FF48071574801F05C
:1006DC004AF800224FF40071544801F044F8A0E0AD
:1006EC0000220821514801F03EF8012204214F4814
:1006FC0001F039F800224FF480614C4801F033F8D6
:10070C00002220214A4801F02EF800224FF480618B
:10071C00474801F028F800224FF48071434801F05B
:10072C0022F800224FF40071404801F01CF878E0E8
:10073C00002208213D4801F016F8002204213B4814
:10074C0001F011F800224FF48061384801F00BF8E9
:10075C0001222021364801F006F801224FF4806175
:10076C00334801F000F801224FF480712F4800F05B
:10077C00FAFF01224FF400712C4800F0F4FF50E016
:10078C0000220821294800F0EEFF0022042127480E
:10079C0000F0E9FF00224FF48061244800F0E3FFF1
:1007AC0000222021224800F0DEFF00224FF480615D
:1007BC001F4800F0D8FF00224FF480711B4800F056
:1007CC00D2FF00224FF40071184800F0CCFF28E053
:1007DC0000220821154800F0C6FF0022042113480E
:1007EC0000F0C1FF00224FF48061104800F0BBFF05
:1007FC00002220210E4800F0B6FF01224FF4806148
:10080C000B4800F0B0FF00224FF48071074800F055
:10081C00AAFF00224FF40071044800F0A4FF00E08E
:10082C0000BF00BF0837BD4680BD00BF00080140B7
:10083C00000C014080B500AF954B1B78012B40F0AC
:10084C002481944B1B78042B00F21F8101A252F8D7
:10085C0023F000BF7508000885080008030900088C
:10086C0089090008050A00088A4B01221A706421C4
:10087C00002000F089FB08E10020FFF761FC034633
:10088C00012B0DD1824B02221A700020FFF72AFD9A
:10089C000020FFF783FD1921032000F075FBF4E025
:1008AC000120FFF71FFD0220FFF778FD7A4B1B6834
:1008BC00013B1846FFF704FE784B1B68012B40F0F8
:1008CC00DD80754B1B68013B734A1360744B1B68CE
:1008DC00013B734A1360724B1B68002B06D1714BA2
:1008EC001B686F4A13606B4B02221A706421002044
:1008FC0000F04AFBC2E00020FFF722FC0346012B6C
:10090C000DD1634B02221A700020FFF7EBFC002084
:10091C00FFF744FD1921032000F036FBB5E0012060
:10092C00FFF7E0FC0320FFF739FD5B4B1B68013B35
:10093C001846FFF7C5FD594B1B68012B40F0A080F2
:10094C00554B1B68013B544A1360554B1B68013BCC
:10095C00534A1360524B1B68002B0AD1524B1B6835
:10096C004F4A1360514B1B684B4A1360494B03228F
:10097C001A706421002000F007FB81E00020FFF7D3
:10098C00DFFB0346012B0DD1414B02221A700020D4
:10099C00FFF7A8FC0020FFF701FD1921032000F050
:1009AC00F3FA72E00220FFF79DFC0120FFF7F6FC42
:1009BC00394B1B68013B1846FFF782FD374B1B6810
:1009CC00012B5FD1344B1B68013B334A1360344B12
:1009DC001B68013B324A13602F4B1B68002B06D15E
:1009EC00304B1B682C4A13602A4B04221A7064216A
:1009FC00002000F0C9FA45E00020FFF7A1FB0346F8
:100A0C00012B0DD1224B02221A700020FFF76AFC39
:100A1C000020FFF7C3FC1921032000F0B5FA34E0E5
:100A2C000320FFF75FFC0120FFF7B8FC1A4B1B6893
:100A3C00013B1846FFF744FD184B1B68012B23D1D3
:100A4C00154B1B68013B144A1360154B1B68013B8B
:100A5C00134A1360104B1B68002B0AD1134B1B68F5
:100A6C000F4A1360104B1B680B4A1360094B012291
:100A7C001A706421002000F087FA05E000BF04E042
:100A8C0000BF02E000BF00E000BF00BF80BD00BFA0
:100A9C00800000208100002084000020FC00002049
:100AAC008800002048000020400000204400002066
:100ABC0080B500AF744B1B78042B00F09780042B8F
:100ACC0000F3D980022B02D0032B48D0D3E06F4B1C
:100ADC00DB68012B0CD10120FFF7BEFC6C4B1B68B3
:100AEC00013B1846FFF7ECFC1921032000F04CFAEF
:100AFC000120FFF725FB0346012B10D1644B1B682B
:100B0C000133634A1360634B1B680133614A136002
:100B1C005F4B1B68622B02DD5D4B01221A600220C9
:100B2C00FFF70EFB0346012B04D1574B01221A7021
:100B3C0000F0B4F80020FFF703FB0346012B40F054
:100B4C009C801921032000F01FFA4F4B03221A70CE
:100B5C000020FFF7C7FB0020FFF720FC8DE04B4B7C
:100B6C00DB68012B0CD10320FFF776FC4A4B1B688A
:100B7C00013B1846FFF7A4FC1921032000F004FAEE
:100B8C000120FFF7DDFA0346012B10D1424B1B6805
:100B9C000133414A13603E4B1B6801333C4A1360DE
:100BAC003D4B1B68622B02DD3B4B01221A6002207D
:100BBC00FFF7C6FA0346012B04D1334B01221A70FE
:100BCC0000F06CF80020FFF7BBFA0346012B56D15E
:100BDC002D4B04221A701921032000F0D5F90020A6
:100BEC00FFF780FB0020FFF7D9FB48E0274BDB68C1
:100BFC00012B0CD10220FFF72FFC264B1B68013B6D
:100C0C001846FFF75DFC1921032000F0BDF9012007
:100C1C00FFF796FA0346012B10D11D4B1B680133CD
:100C2C001B4A13601B4B1B6801331A4A1360194B88
:100C3C001B68622B02DD174B01221A600220FFF7A2
:100C4C007FFA0346012B04D10F4B01221A7000F0DE
:100C5C0025F80020FFF774FA0346012B11D10A4B3B
:100C6C0001221A7000F01AF80020FFF73BFB00205D
:100C7C00FFF794FB05E000BF04E000BF02E000BFFB
:100C8C0000E000BF00BF80BD80000020FC00002001
:100C9C0040000020440000204800002080B400AF39
:100CAC000B4B01221A700B4B00221A700A4B0022BC
:100CBC001A700A4B00221A70094B1B68094A136000
:100CCC00094B1B68094A136000BFBD4680BC7047C6
:100CDC008000002081000020820000208300002082
:100CEC0040000020840000204400002088000020E8
:100CFC0080B500AF00F02CFA00F014F800F09AF870
:100D0C0000F04CF8064801F08DF9FFF7C7FF002002
:100D1C00FFF7E8FAFFF78EFDFFF7CAFEFAE700BF10
:100D2C008C00002080B590B000AF07F1180328228A
:100D3C000021184601F024FD3B1D00221A605A6068
:100D4C009A60DA601A610223BB610123BB62102333
:100D5C00FB6200237B6307F11803184600F034FD97
:100D6C000346002B01D000F009F90F237B60002310
:100D7C00BB600023FB6000233B6100237B613B1DB8
:100D8C000021184600F0A2FF0346002B01D000F012
:100D9C00F5F800BF4037BD4680BD000080B586B079
:100DAC0000AF07F1080300221A605A609A60DA60FB
:100DBC003B4600221A605A601D4B4FF080421A606D
:100DCC001B4B41F63F725A60194B00229A60184B2C
:100DDC000A22DA60164B00221A61154B00229A6126
:100DEC00134801F0CFF80346002B01D000F0C6F8F1
:100DFC004FF48053BB6007F1080319460C4801F00F
:100E0C006BFA0346002B01D000F0B8F800233B60CE
:100E1C0000237B603B461946054801F041FC034624
:100E2C00002B01D000F0AAF800BF1837BD4680BDDA
:100E3C008C00002080B588B000AF07F110030022B1
:100E4C001A605A609A60DA603D4B9B693C4A43F0E9
:100E5C00100393613A4B9B6903F01003FB60FB6832
:100E6C00374B9B69364A43F004039361344B9B69BF
:100E7C0003F00403BB60BB68314B9B69304A43F001
:100E8C00080393612E4B9B6903F008037B607B681E
:100E9C00002203212B4800F066FC002213212A4873
:100EAC0000F061FC012240F20C71274800F05BFC61
:100EBC0000220121254800F056FC01224FF48C61E0
:100ECC00224800F050FC03233B6101237B6100238B
:100EDC00BB610223FB6107F110031946194800F0AE
:100EEC00A7FA40F21F733B6101237B610023BB61B6
:100EFC000223FB6107F110031946134800F098FA1E
:100F0C00E0233B6100237B610123BB6107F11003EC
:100F1C0019460D4800F08CFA40F261433B61012305
:100F2C007B610023BB610223FB6107F110031946AF
:100F3C00064800F07DFA00BF2037BD4680BD00BFDB
:100F4C00001002400010014000080140000C01405C
:100F5C0080B582B000AF7860FFF71CF9002000F07C
:100F6C002BF8012000F028F8022000F025F80320CF
:100F7C0000F022F800BF0837BD4680BD80B400AF3A
:100F8C0072B600BFFEE7000080B483B000AF78609B
:100F9C00396007497B683A6841F82320054A7B6829
:100FAC00002142F8231000BF0C37BD4680BC7047AF
:100FBC00D4000020FC00002080B483B000AF786027
:100FCC000F4A7B6852F82330002B13DD0C4A7B68E8
:100FDC0052F823305A1E0A497B6841F82320084AEC
:100FEC007B6852F82330002B04DC064A7B68012115
:100FFC0042F8231000BF0C37BD4680BC704700BFC1
:10100C00D4000020FC00002080B483B000AF0E4B55
:10101C009B690D4A43F0010393610B4B9B6903F0F1
:10102C0001037B607B68084BDB69074A43F0805304
:10103C00D361054BDB6903F080533B603B6800BF19
:10104C000C37BD4680BC70470010024080B584B0A0
:10105C0000AF78607B681B68B3F1804F13D10C4BE9
:10106C00DB690B4A43F00103D361094BDB6903F0E5
:10107C000103FB60FB68002200211C2000F0A1F999
:10108C001C2000F0BAF900BF1037BD4680BD00BF70
:10109C000010024080B400AFFEE780B400AFFEE762
:1010AC0080B400AFFEE780B400AFFEE780B400AFC1
:1010BC00FEE780B400AF00BFBD4680BC704780B473
:1010CC0000AF00BFBD4680BC704780B400AF00BF0E
:1010DC00BD4680BC704780B500AF00F07FF800BF04
:1010EC0080BD000080B500AF024800F0EDFF00BFEE
:1010FC0080BD00BF8C00002080B400AF00BFBD4697
:10110C0080BC7047FFF7F8FF0B480C490C4A0023D2
:10111C0002E0D458C4500433C4188C42F9D3094AA1
:10112C00094C002301E013600432A242FBD301F00E
:10113C002FFBFFF7DDFD704700000020580000205A
:10114C00282800085800002028010020FEE7000095
:10115C0080B500AF084B1B68074A43F010031360BF
:10116C00032000F023F90F2000F008F8FFF74CFFE4
:10117C000023184680BD00BF0020024080B582B01D
:10118C0000AF7860124B1A68124B1B7819464FF45B
:10119C007A73B3FBF1F3B2FBF3F3184600F03BF9AF
:1011AC000346002B01D001230EE07B680F2B0AD8DD
:1011BC00002279684FF0FF3000F003F9064A7B6893
:1011CC001360002300E0012318460837BD4680BD9C
:1011DC004C000020540000205000002080B400AFD0
:1011EC00054B1B781A46054B1B681344034A1360C6
:1011FC0000BFBD4680BC7047540000202401002075
:10120C0080B400AF024B1B681846BD4680BC7047CB
:10121C002401002080B485B000AF78607B6803F0B7
:10122C000703FB600C4BDB68BB60BA684FF6FF032F
:10123C001340BB60FB681A02BB68134343F0BF63E7
:10124C0043F40033BB60044ABB68D36000BF14375F
:10125C00BD4680BC704700BF00ED00E080B400AF1D
:10126C00044BDB681B0A03F007031846BD4680BC21
:10127C00704700BF00ED00E080B483B000AF0346C0
:10128C00FB7197F90730002B0BDBFB7903F01F0286
:10129C00064997F907305B09012000FA02F241F880
:1012AC00232000BF0C37BD4680BC704700E100E036
:1012BC0080B483B000AF03463960FB7197F90730F7
:1012CC00002B0ADB3B68DAB20C4997F907301201A4
:1012DC00D2B20B4483F800230AE03B68DAB2084927
:1012EC00FB7903F00F03043B1201D2B20B441A76C4
:1012FC0000BF0C37BD4680BC704700BF00E100E06A
:10130C0000ED00E080B489B000AFF860B9607A609D
:10131C00FB6803F00703FB61FB69C3F10703042BB4
:10132C0028BF0423BB61FB690433062B02D9FB697C
:10133C00033B00E000237B614FF0FF32BB6902FAF4
:10134C0003F3DA43BB681A407B699A404FF0FF31D4
:10135C007B6901FA03F3D9437B680B4013431846AE
:10136C002437BD4680BC704780B582B000AF786032
:10137C007B68013BB3F1807F01D301230FE00A4A64
:10138C007B68013B53600F214FF0FF30FFF790FF5C
:10139C00054B00229A60044B07221A600023184662
:1013AC000837BD4680BD00BF10E000E080B582B0BC
:1013BC0000AF78607868FFF72DFF00BF0837BD4697
:1013CC0080BD80B586B000AF0346B9607A60FB7310
:1013DC0000237B61FFF742FF78617A68B96878690E
:1013EC00FFF790FF024697F90F3011461846FFF7AA
:1013FC005FFF00BF1837BD4680BD80B582B000AF1F
:10140C000346FB7197F907301846FFF735FF00BF0D
:10141C000837BD4680BD80B582B000AF7860786873
:10142C00FFF7A2FF034618460837BD4680BD0000F3
:10143C0080B48BB000AF7860396000237B620023EE
:10144C003B6269E101227B6A02FA03F3FB613B68B0
:10145C001B68FA691340BB61BA69FB699A4240F098
:10146C0058813B685B689A4A93425ED0984A934293
:10147C0075D8984A934258D0964A93426FD8964A58
:10148C00934252D0944A934269D8944A93424CD096
:10149C00924A934263D8924A934246D0904A9342DE
:1014AC005DD8122B2AD8122B59D801A252F823F04E
:1014BC0037150008111500082315000865150008DC
:1014CC006B1500086B1500086B1500086B150008F0
:1014DC006B1500086B1500086B1500086B150008E0
:1014EC006B1500086B1500086B1500086B150008D0
:1014FC006B150008191500082D150008794A934240
:10150C0013D02CE03B68DB683B6229E03B68DB686E
:10151C0004333B6224E03B68DB6808333B621FE02A
:10152C003B68DB680C333B621AE03B689B68002B22
:10153C0002D104233B6213E03B689B68012B05D16D
:10154C0008233B627B68FA691A6109E008233B6255
:10155C007B68FA695A6103E000233B6200E000BF3C
:10156C00BB69FF2B01D87B6801E07B6804337B618E
:10157C00BB69FF2B02D87B6A9B0002E07B6A083BAD
:10158C009B003B617B691A680F213B6901FA03F3ED
:10159C00DB431A40396A3B6901FA03F31A437B694E
:1015AC001A603B685B6803F08053002B00F0B1803D
:1015BC004D4B9B694C4A43F0010393614A4B9B6929
:1015CC0003F00103BB60BB68484A7B6A9B0802338B
:1015DC0052F82330FB607B6A03F003039B000F225D
:1015EC0002FA03F3DB43FA681340FB607B68404A62
:1015FC00934213D07B683F4A93420DD07B683E4A9E
:10160C00934207D07B683D4A934201D1032306E005
:10161C00042304E0022302E0012300E000237A6AA1
:10162C0002F0030292009340FA681343FB602F49C7
:10163C007B6A9B080233FA6841F823203B685B689D
:10164C0003F48013002B06D02D4B9A682C49BB69F0
:10165C0013438B6006E02A4B9A68BB69DB4328492D
:10166C0013408B603B685B6803F40013002B06D0BF
:10167C00234BDA682249BB691343CB6006E0204B4D
:10168C00DA68BB69DB431E491340CB603B685B687F
:10169C0003F40033002B06D0194B5A681849BB6968
:1016AC0013434B6006E0164B5A68BB69DB43144985
:1016BC0013404B603B685B6803F48033002B21D0F4
:1016CC000F4B1A680E49BB6913430B6021E000BF36
:1016DC000000321000003110000022100000211018
:1016EC000000121000001110001002400000014018
:1016FC0000080140000C01400010014000140140A2
:10170C00000401400B4B1A68BB69DB4309491340C9
:10171C000B607B6A01337B623B681A687B6A22FA36
:10172C0003F3002B7FF48EAE00BF00BF2C37BD46F9
:10173C0080BC70470004014080B485B000AF786075
:10174C000B467B807B689A687B881340002B02D009
:10175C000123FB7301E00023FB73FB7B184614375A
:10176C00BD4680BC704780B483B000AF78600B4638
:10177C007B8013467B707B78002B03D07A887B6848
:10178C001A6103E07B881A047B681A6100BF0C376E
:10179C00BD4680BC704780B485B000AF78600B4606
:1017AC007B807B68DB68FB607A88FB6813401A04DB
:1017BC00FB68D9437B880B401A437B681A6100BFD6
:1017CC001437BD4680BC704780B586B000AF7860DA
:1017DC007B68002B01D1012372E27B681B6803F04C
:1017EC000103002B00F08780924B5B6803F00C0325
:1017FC00042B0CD08F4B5B6803F00C03082B12D11D
:10180C008C4B5B6803F48033B3F5803F0BD1894B71
:10181C001B6803F40033002B6CD07B685B68002BD7
:10182C0068D101234CE27B685B68B3F5803F06D13D
:10183C00804B1B687F4A43F4803313602EE07B6837
:10184C005B68002B0CD17B4B1B687A4A23F48033EA
:10185C001360784B1B68774A23F4802313601DE0D8
:10186C007B685B68B3F5A02F0CD1724B1B68714A77
:10187C0043F4802313606F4B1B686E4A43F4803330
:10188C0013600BE06B4B1B686A4A23F480331360C4
:10189C00684B1B68674A23F4802313607B685B6882
:1018AC00002B13D0FFF7ACFC386108E0FFF7A8FC65
:1018BC0002463B69D31A642B01D9032300E25D4B2A
:1018CC001B6803F40033002BF0D014E0FFF798FCF6
:1018DC00386108E0FFF794FC02463B69D31A642B8D
:1018EC0001D90323ECE1534B1B6803F40033002BA9
:1018FC00F0D100E000BF7B681B6803F00203002BF3
:10190C0063D04C4B5B6803F00C03002B0BD0494BA2
:10191C005B6803F00C03082B1CD1464B5B6803F48B
:10192C008033002B16D1434B1B6803F00203002BB2
:10193C0005D07B681B69012B01D00123C0E13D4B15
:10194C001B6823F0F8027B685B69DB0039491343A1
:10195C000B603AE07B681B69002B20D0364B0122D0
:10196C001A60FFF74DFC386108E0FFF749FC0246AE
:10197C003B69D31A022B01D90323A1E12D4B1B6820
:10198C0003F00203002BF0D02A4B1B6823F0F80263
:10199C007B685B69DB00274913430B6015E0264B22
:1019AC0000221A60FFF72CFC386108E0FFF728FCD6
:1019BC0002463B69D31A022B01D9032380E11D4B4C
:1019CC001B6803F00203002BF0D17B681B6803F04B
:1019DC000803002B3AD07B689B69002B19D0174B5E
:1019EC0001221A60FFF70CFC386108E0FFF708FCD5
:1019FC0002463B69D31A022B01D9032360E10D4B3C
:101A0C005B6A03F00203002BF0D0012000F09CFA7B
:101A1C001CE00A4B00221A60FFF7F2FB38610FE062
:101A2C00FFF7EEFB02463B69D31A022B08D90323BE
:101A3C0046E100BF001002400000424280044242D6
:101A4C00924B5B6A03F00203002BE9D17B681B68A5
:101A5C0003F00403002B00F0A6800023FB758B4BD6
:101A6C00DB6903F08053002B0DD1884BDB69874A6F
:101A7C0043F08053D361854BDB6903F08053BB602B
:101A8C00BB680123FB75824B1B6803F48073002B2E
:101A9C0018D17F4B1B687E4A43F480731360FFF7A9
:101AAC00AFFB386108E0FFF7ABFB02463B69D31A8A
:101ABC00642B01D9032303E1754B1B6803F480737A
:101ACC00002BF0D07B68DB68012B06D16F4B1B6AB7
:101ADC006E4A43F0010313622DE07B68DB68002B38
:101AEC000CD16A4B1B6A694A23F001031362674BE2
:101AFC001B6A664A23F0040313621CE07B68DB68F4
:101B0C00052B0CD1614B1B6A604A43F00403136232
:101B1C005E4B1B6A5D4A43F0010313620BE05B4BA7
:101B2C001B6A5A4A23F001031362584B1B6A574A2B
:101B3C0023F0040313627B68DB68002B15D0FFF7DE
:101B4C005FFB38610AE0FFF75BFB02463B69D31A87
:101B5C0041F28832934201D90323B1E04B4B1B6A0B
:101B6C0003F00203002BEED014E0FFF749FB3861C1
:101B7C000AE0FFF745FB02463B69D31A41F2883273
:101B8C00934201D903239BE0404B1B6A03F00203F1
:101B9C00002BEED1FB7D012B05D13C4BDB693B4A85
:101BAC0023F08053D3617B68DB69002B00F08780C6
:101BBC00364B5B6803F00C03082B61D07B68DB6948
:101BCC00022B46D1334B00221A60FFF719FB386108
:101BDC0008E0FFF715FB02463B69D31A022B01D92B
:101BEC0003236DE0294B1B6803F00073002BF0D12D
:101BFC007B681B6AB3F5803F08D1244B5B6823F4E8
:101C0C0000327B689B68214913434B601F4B5B6818
:101C1C0023F474127B68196A7B685B6A0B431B495B
:101C2C0013434B601B4B01221A60FFF7E9FA386132
:101C3C0008E0FFF7E5FA02463B69D31A022B01D9FB
:101C4C0003233DE0114B1B6803F00073002BF0D015
:101C5C0035E0104B00221A60FFF7D2FA386108E029
:101C6C00FFF7CEFA02463B69D31A022B01D90323A4
:101C7C0026E0064B1B6803F00073002BF0D11EE02E
:101C8C007B68DB69012B07D1012319E000100240AE
:101C9C0000700040600042420B4B5B68FB60FB68CD
:101CAC0003F480327B681B6A9A4206D1FB6803F40A
:101CBC0070127B685B6A9A4201D0012300E000231A
:101CCC0018461837BD4680BD0010024080B584B060
:101CDC0000AF786039607B68002B01D10123D0E024
:101CEC006A4B1B6803F007033A689A4210D9674B9A
:101CFC001B6823F0070265493B6813430B60634B79
:101D0C001B6803F007033A689A4201D00123B8E03C
:101D1C007B681B6803F00203002B20D07B681B68D8
:101D2C0003F00403002B05D0594B5B68584A43F46D
:101D3C00E06353607B681B6803F00803002B05D03D
:101D4C00534B5B68524A43F460535360504B5B688F
:101D5C0023F0F0027B689B684D4913434B607B6812
:101D6C001B6803F00103002B40D07B685B68012BE0
:101D7C0007D1474B1B6803F40033002B15D101230B
:101D8C007FE07B685B68022B07D1414B1B6803F03B
:101D9C000073002B09D1012373E03D4B1B6803F04A
:101DAC000203002B01D101236BE0394B5B6823F05C
:101DBC0003027B685B68364913434B60FFF720FADC
:101DCC00F8600AE0FFF71CFA0246FB68D31A41F2EE
:101DDC008832934201D9032353E02D4B5B6803F007
:101DEC000C027B685B689B009A42EBD1274B1B680B
:101DFC0003F007033A689A4210D2244B1B6823F075
:101E0C00070222493B6813430B60204B1B6803F00D
:101E1C0007033A689A4201D0012332E07B681B68C1
:101E2C0003F00403002B08D0194B5B6823F4E06229
:101E3C007B68DB68164913434B607B681B6803F0B7
:101E4C000803002B09D0124B5B6823F460527B68AB
:101E5C001B69DB000E4913434B6000F021F802466E
:101E6C000B4B5B681B0903F00F030A49CB5C22FA8E
:101E7C0003F3094A1360094B1B681846FFF77EF9F8
:101E8C00002318461037BD4680BD00BF002002401D
:101E9C0000100240FC2700084C00002050000020DD
:101EAC0080B487B000AF0023FB600023BB6000232D
:101EBC007B6100237B6000233B611E4B5B68FB60F6
:101ECC00FB6803F00C03042B02D0082B03D027E093
:101EDC00194B3B6127E0FB689B0C03F00F03174A7F
:101EEC00D35C7B60FB6803F48033002B10D0114B68
:101EFC005B685B0C03F00103114AD35CBB607B682D
:101F0C000D4A03FB02F2BB68B2FBF3F37B6104E006
:101F1C007B680C4A02FB03F37B617B693B6102E04B
:101F2C00054B3B6100BF3B6918461C37BD4680BC66
:101F3C00704700BF0010024000127A000C28000805
:101F4C001C28000800093D0080B485B000AF786003
:101F5C000A4B1B680A4AA2FB03235B0A7A6802FB42
:101F6C0003F3FB6000BFFB685A1EFA60002BF9D12B
:101F7C0000BF00BF1437BD4680BC70474C0000202A
:101F8C00D34D621080B582B000AF78607B68002BB7
:101F9C0001D1012341E07B6893F83D30DBB2002B8B
:101FAC0006D17B68002283F83C207868FFF74EF856
:101FBC007B68022283F83D207B681A687B680433B7
:101FCC001946104600F074FA7B68012283F846200B
:101FDC007B68012283F83E207B68012283F83F2036
:101FEC007B68012283F840207B68012283F8412022
:101FFC007B68012283F842207B68012283F843200E
:10200C007B68012283F844207B68012283F84520F9
:10201C007B68012283F83D20002318460837BD4613
:10202C0080BD000080B485B000AF78607B6893F809
:10203C003D30DBB2012B01D001233AE07B68022258
:10204C0083F83D207B681B68DA687B681B6842F06C
:10205C000102DA607B681B68184A93420ED07B68D9
:10206C001B68B3F1804F09D07B681B68144A9342FC
:10207C0004D07B681B68134A934211D17B681B68A0
:10208C009B6803F00703FB60FB68062B10D07B6892
:10209C001B681A687B681B6842F001021A6007E033
:1020AC007B681B681A687B681B6842F001021A6027
:1020BC00002318461437BD4680BC7047002C0140E5
:1020CC00000400400008004080B582B000AF78608A
:1020DC007B681B681B6903F00203022B22D17B680F
:1020EC001B68DB6803F00203022B1BD17B681B68A7
:1020FC006FF002021A617B6801221A777B681B68F9
:10210C009B6903F00303002B03D0786800F0B4F94B
:10211C0005E0786800F0A7F9786800F0B6F97B68FC
:10212C0000221A777B681B681B6903F00403042BDD
:10213C0022D17B681B68DB6803F00403042B1BD1E2
:10214C007B681B686FF004021A617B6802221A77A5
:10215C007B681B689B6903F44073002B03D0786881
:10216C0000F08AF905E0786800F07DF9786800F0F5
:10217C008CF97B6800221A777B681B681B6903F05B
:10218C000803082B22D17B681B68DB6803F008036B
:10219C00082B1BD17B681B686FF008021A617B68E7
:1021AC0004221A777B681B68DB6903F00303002B9E
:1021BC0003D0786800F060F905E0786800F053F916
:1021CC00786800F062F97B6800221A777B681B68DC
:1021DC001B6903F01003102B22D17B681B68DB6892
:1021EC0003F01003102B1BD17B681B686FF01002DF
:1021FC001A617B6808221A777B681B68DB6903F419
:10220C004073002B03D0786800F036F905E078684D
:10221C0000F029F9786800F038F97B6800221A7709
:10222C007B681B681B6903F00103012B0ED17B68D3
:10223C001B68DB6803F00103012B07D17B681B686B
:10224C006FF001021A617868FEF782FE7B681B68EA
:10225C001B6903F08003802B0ED17B681B68DB6845
:10226C0003F08003802B07D17B681B686FF0800222
:10227C001A61786800F07BFA7B681B681B6903F0B5
:10228C004003402B0ED17B681B68DB6803F04003D6
:10229C00402B07D17B681B686FF040021A6178688D
:1022AC0000F0FCF87B681B681B6903F02003202BF3
:1022BC000ED17B681B68DB6803F02003202B07D151
:1022CC007B681B686FF020021A61786800F046FA90
:1022DC0000BF0837BD4680BD80B584B000AF7860C4
:1022EC0039600023FB737B6893F83C30012B01D1E0
:1022FC000223B4E07B68012283F83C207B68022235
:10230C0083F83D207B681B689B68BB60BB6823F02F
:10231C007703BB60BB6823F47F43BB607B681B689F
:10232C00BA689A603B681B68B3F5005F3ED0B3F5A2
:10233C00005F00F28780B3F5805F00F08680B3F514
:10234C00805F7FD8702B1AD0702B7BD8602B50D02D
:10235C00602B77D8502B3CD0502B73D8402B58D0B7
:10236C00402B6FD8302B64D0302B6BD8202B60D007
:10237C00202B67D8002B5CD0102B5AD062E07B68E6
:10238C0018683B6899683B685A683B68DB6800F0E2
:10239C0068F97B681B689B68BB60BB6843F077037C
:1023AC00BB607B681B68BA689A604FE07B681868F2
:1023BC003B6899683B685A683B68DB6800F051F9E8
:1023CC007B681B689A687B681B6842F480429A6041
:1023DC003CE07B6818683B6859683B68DB681A46C8
:1023EC0000F0C8F87B681B685021184600F01FF9F4
:1023FC002CE07B6818683B6859683B68DB681A46B8
:10240C0000F0E6F87B681B686021184600F00FF9B5
:10241C001CE07B6818683B6859683B68DB681A46A7
:10242C0000F0A8F87B681B684021184600F0FFF804
:10243C000CE07B681A683B681B681946104600F074
:10244C00F6F803E00123FB7300E000BF7B68012278
:10245C0083F83D207B68002283F83C20FB7B1846E8
:10246C001037BD4680BD80B483B000AF786000BF2C
:10247C000C37BD4680BC704780B483B000AF786029
:10248C0000BF0C37BD4680BC704780B483B000AF32
:10249C00786000BF0C37BD4680BC704780B483B0F9
:1024AC0000AF786000BF0C37BD4680BC70470000A1
:1024BC0080B485B000AF786039607B681B68FB60C6
:1024CC007B68294A93420BD07B68B3F1804F07D0CD
:1024DC007B68264A934203D07B68254A934208D1F5
:1024EC00FB6823F07003FB603B685B68FA6813437E
:1024FC00FB607B681C4A93420BD07B68B3F1804F26
:10250C0007D07B68194A934203D07B68184A9342E0
:10251C0008D1FB6823F44073FB603B68DB68FA6806
:10252C001343FB60FB6823F080023B685B69134339
:10253C00FB607B68FA681A603B689A687B68DA62B1
:10254C003B681A687B689A627B68074A934203D19E
:10255C003B681A697B681A637B6801225A6100BF69
:10256C001437BD4680BC7047002C0140000400406D
:10257C000008004080B487B000AFF860B9607A60A2
:10258C00FB681B6A7B61FB681B6A23F00102FB681A
:10259C001A62FB689B693B613B6923F0F0033B616A
:1025AC007B681B013A6913433B617B6923F00A0387
:1025BC007B617A69BB6813437B61FB683A699A61FA
:1025CC00FB687A691A6200BF1C37BD4680BC704735
:1025DC0080B487B000AFF860B9607A60FB681B6AA2
:1025EC007B61FB681B6A23F01002FB681A62FB68B4
:1025FC009B693B613B6923F470433B617B681B0324
:10260C003A6913433B617B6923F0A0037B61BB6890
:10261C001B017A6913437B61FB683A699A61FB6819
:10262C007A691A6200BF1C37BD4680BC704780B403
:10263C0085B000AF786039607B689B68FB60FB6895
:10264C0023F07003FB603A68FB68134343F0070305
:10265C00FB607B68FA689A6000BF1437BD4680BC8B
:10266C00704780B487B000AFF860B9607A603B60A7
:10267C00FB689B687B617B6923F47F437B613B68D0
:10268C001A027B681A43BB6813437A6913437B6154
:10269C00FB687A699A6000BF1C37BD4680BC7047E6
:1026AC0080B485B000AF786039607B6893F83C30BB
:1026BC00012B01D1022346E07B68012283F83C20E8
:1026CC007B68022283F83D207B681B685B68FB609B
:1026DC007B681B689B68BB60FB6823F07003FB6026
:1026EC003B681B68FA681343FB607B681B68FA68DD
:1026FC005A607B681B68164A93420ED07B681B6835
:10270C00B3F1804F09D07B681B68124A934204D006
:10271C007B681B68104A93420CD1BB6823F0800382
:10272C00BB603B685B68BA681343BB607B681B6823
:10273C00BA689A607B68012283F83D207B6800228E
:10274C0083F83C20002318461437BD4680BC7047E4
:10275C00002C0140000400400008004080B483B00D
:10276C0000AF786000BF0C37BD4680BC704780B4AA
:10277C0083B000AF786000BF0C37BD4680BC70479B
:10278C0003460244934200D1704703F8011BF9E75A
:10279C0070B500260C4D0D4C641BA410A64209D13B
:1027AC0000F01AF800260A4D0A4C641BA410A6422D
:1027BC0005D170BD55F8043B98470136EEE755F846
:1027CC00043B98470136F2E720280008202800082F
:1027DC002028000824280008F8B500BFF8BC08BC65
:1027EC009E467047F8B500BFF8BC08BC9E467047C3
:1027FC0000000000000000000102030406070809A5
:10280C0002030405060708090A0B0C0D0E0F101025
:04281C0001020000B5
:04282000310100087A
:042824000D0100089A
:1028280020000000400000008000000001000000BF
:10283800010000000100000001000000010000008C
:10284800010000000100000001000000010000007C
:10285800010000000100000001000000F401000078
:102868000700000004000000030000000024F4003A
:08287800100000000100000047
:0400000508001111CD
:00000001FF
